{
	"FundMe.sol": {
		"FundMe": {
			"abi": [
				{
					"inputs": [],
					"stateMutability": "nonpayable",
					"type": "constructor"
				},
				{
					"inputs": [],
					"name": "NotOwner",
					"type": "error"
				},
				{
					"stateMutability": "payable",
					"type": "fallback"
				},
				{
					"inputs": [
						{
							"internalType": "address",
							"name": "funder",
							"type": "address"
						}
					],
					"name": "addrToFundedAmount",
					"outputs": [
						{
							"internalType": "uint256",
							"name": "amountFunded",
							"type": "uint256"
						}
					],
					"stateMutability": "view",
					"type": "function"
				},
				{
					"inputs": [],
					"name": "fund",
					"outputs": [],
					"stateMutability": "payable",
					"type": "function"
				},
				{
					"inputs": [
						{
							"internalType": "uint256",
							"name": "",
							"type": "uint256"
						}
					],
					"name": "funders",
					"outputs": [
						{
							"internalType": "address",
							"name": "",
							"type": "address"
						}
					],
					"stateMutability": "view",
					"type": "function"
				},
				{
					"inputs": [],
					"name": "i_owner",
					"outputs": [
						{
							"internalType": "address",
							"name": "",
							"type": "address"
						}
					],
					"stateMutability": "view",
					"type": "function"
				},
				{
					"inputs": [],
					"name": "withdraw",
					"outputs": [],
					"stateMutability": "nonpayable",
					"type": "function"
				},
				{
					"stateMutability": "payable",
					"type": "receive"
				}
			],
			"devdoc": {
				"kind": "dev",
				"methods": {},
				"version": 1
			},
			"evm": {
				"assembly": "    /* \"FundMe.sol\":130:2120  contract FundMe {... */\n  mstore(0x40, 0xa0)\n    /* \"FundMe.sol\":379:432  constructor(){... */\n  callvalue\n  dup1\n  iszero\n  tag_1\n  jumpi\n  0x00\n  dup1\n  revert\ntag_1:\n  pop\n    /* \"FundMe.sol\":412:422  msg.sender */\n  caller\n    /* \"FundMe.sol\":402:422  i_owner = msg.sender */\n  0xffffffffffffffffffffffffffffffffffffffff\n  and\n  0x80\n  dup2\n  0xffffffffffffffffffffffffffffffffffffffff\n  and\n  dup2\n  mstore\n  pop\n  pop\n    /* \"FundMe.sol\":130:2120  contract FundMe {... */\n  mload(0x80)\n  codecopy(0x00, dataOffset(sub_0), dataSize(sub_0))\n  0x00\n  assignImmutable(\"0xbbd48b257be1b8216d144ef9be5734f8d11697959c9e0f7768bec89db74a63a3\")\n  return(0x00, dataSize(sub_0))\nstop\n\nsub_0: assembly {\n        /* \"FundMe.sol\":130:2120  contract FundMe {... */\n      mstore(0x40, 0x80)\n      jumpi(tag_1, lt(calldatasize, 0x04))\n      shr(0xe0, calldataload(0x00))\n      dup1\n      0x3ccfd60b\n      eq\n      tag_3\n      jumpi\n      dup1\n      0xa4e465b2\n      eq\n      tag_4\n      jumpi\n      dup1\n      0xb60d4288\n      eq\n      tag_5\n      jumpi\n      dup1\n      0xdba6335f\n      eq\n      tag_6\n      jumpi\n      dup1\n      0xdc0d3dff\n      eq\n      tag_7\n      jumpi\n      jump(tag_2)\n    tag_1:\n      jumpi(tag_2, calldatasize)\n        /* \"FundMe.sol\":1796:1802  fund() */\n      tag_10\n        /* \"FundMe.sol\":1796:1800  fund */\n      tag_11\n        /* \"FundMe.sol\":1796:1802  fund() */\n      jump\t// in\n    tag_10:\n        /* \"FundMe.sol\":130:2120  contract FundMe {... */\n      stop\n    tag_2:\n        /* \"FundMe.sol\":1924:1930  fund() */\n      tag_14\n        /* \"FundMe.sol\":1924:1928  fund */\n      tag_11\n        /* \"FundMe.sol\":1924:1930  fund() */\n      jump\t// in\n    tag_14:\n        /* \"FundMe.sol\":130:2120  contract FundMe {... */\n      stop\n        /* \"FundMe.sol\":815:1621  function withdraw() public onlyOwner {... */\n    tag_3:\n      callvalue\n      dup1\n      iszero\n      tag_15\n      jumpi\n      0x00\n      dup1\n      revert\n    tag_15:\n      pop\n      tag_16\n      tag_17\n      jump\t// in\n    tag_16:\n      stop\n        /* \"FundMe.sol\":299:372  mapping(address funder => uint256 amountFunded) public addrToFundedAmount */\n    tag_4:\n      callvalue\n      dup1\n      iszero\n      tag_18\n      jumpi\n      0x00\n      dup1\n      revert\n    tag_18:\n      pop\n      tag_19\n      0x04\n      dup1\n      calldatasize\n      sub\n      dup2\n      add\n      swap1\n      tag_20\n      swap2\n      swap1\n      tag_21\n      jump\t// in\n    tag_20:\n      tag_22\n      jump\t// in\n    tag_19:\n      mload(0x40)\n      tag_23\n      swap2\n      swap1\n      tag_24\n      jump\t// in\n    tag_23:\n      mload(0x40)\n      dup1\n      swap2\n      sub\n      swap1\n      return\n        /* \"FundMe.sol\":438:804  function fund() public payable{... */\n    tag_5:\n      tag_25\n      tag_11\n      jump\t// in\n    tag_25:\n      stop\n        /* \"FundMe.sol\":152:184  address public immutable i_owner */\n    tag_6:\n      callvalue\n      dup1\n      iszero\n      tag_26\n      jumpi\n      0x00\n      dup1\n      revert\n    tag_26:\n      pop\n      tag_27\n      tag_28\n      jump\t// in\n    tag_27:\n      mload(0x40)\n      tag_29\n      swap2\n      swap1\n      tag_30\n      jump\t// in\n    tag_29:\n      mload(0x40)\n      dup1\n      swap2\n      sub\n      swap1\n      return\n        /* \"FundMe.sol\":228:252  address[] public funders */\n    tag_7:\n      callvalue\n      dup1\n      iszero\n      tag_31\n      jumpi\n      0x00\n      dup1\n      revert\n    tag_31:\n      pop\n      tag_32\n      0x04\n      dup1\n      calldatasize\n      sub\n      dup2\n      add\n      swap1\n      tag_33\n      swap2\n      swap1\n      tag_34\n      jump\t// in\n    tag_33:\n      tag_35\n      jump\t// in\n    tag_32:\n      mload(0x40)\n      tag_36\n      swap2\n      swap1\n      tag_30\n      jump\t// in\n    tag_36:\n      mload(0x40)\n      dup1\n      swap2\n      sub\n      swap1\n      return\n        /* \"FundMe.sol\":438:804  function fund() public payable{... */\n    tag_11:\n        /* \"FundMe.sol\":289:293  1e18 */\n      0x0de0b6b3a7640000\n        /* \"FundMe.sol\":522:551  msg.value.getConversionRate() */\n      tag_38\n        /* \"FundMe.sol\":522:531  msg.value */\n      callvalue\n        /* \"FundMe.sol\":522:549  msg.value.getConversionRate */\n      tag_39\n        /* \"FundMe.sol\":522:551  msg.value.getConversionRate() */\n      jump\t// in\n    tag_38:\n        /* \"FundMe.sol\":522:565  msg.value.getConversionRate() > MINIMUN_USD */\n      gt\n        /* \"FundMe.sol\":514:597  require(msg.value.getConversionRate() > MINIMUN_USD, \"insufficient fund in wallet\") */\n      tag_40\n      jumpi\n      mload(0x40)\n      0x08c379a000000000000000000000000000000000000000000000000000000000\n      dup2\n      mstore\n      0x04\n      add\n      tag_41\n      swap1\n      tag_42\n      jump\t// in\n    tag_41:\n      mload(0x40)\n      dup1\n      swap2\n      sub\n      swap1\n      revert\n    tag_40:\n        /* \"FundMe.sol\":668:675  funders */\n      0x00\n        /* \"FundMe.sol\":681:691  msg.sender */\n      caller\n        /* \"FundMe.sol\":668:692  funders.push(msg.sender) */\n      swap1\n      dup1\n      0x01\n      dup2\n      sload\n      add\n      dup1\n      dup3\n      sstore\n      dup1\n      swap2\n      pop\n      pop\n      0x01\n      swap1\n      sub\n      swap1\n      0x00\n      mstore\n      keccak256(0x00, 0x20)\n      add\n      0x00\n      swap1\n      swap2\n      swap1\n      swap2\n      swap1\n      swap2\n      0x0100\n      exp\n      dup2\n      sload\n      dup2\n      0xffffffffffffffffffffffffffffffffffffffff\n      mul\n      not\n      and\n      swap1\n      dup4\n      0xffffffffffffffffffffffffffffffffffffffff\n      and\n      mul\n      or\n      swap1\n      sstore\n      pop\n        /* \"FundMe.sol\":788:797  msg.value */\n      callvalue\n        /* \"FundMe.sol\":754:772  addrToFundedAmount */\n      0x01\n        /* \"FundMe.sol\":754:784  addrToFundedAmount[msg.sender] */\n      0x00\n        /* \"FundMe.sol\":773:783  msg.sender */\n      caller\n        /* \"FundMe.sol\":754:784  addrToFundedAmount[msg.sender] */\n      0xffffffffffffffffffffffffffffffffffffffff\n      and\n      0xffffffffffffffffffffffffffffffffffffffff\n      and\n      dup2\n      mstore\n      0x20\n      add\n      swap1\n      dup2\n      mstore\n      0x20\n      add\n      0x00\n      keccak256\n      0x00\n        /* \"FundMe.sol\":754:797  addrToFundedAmount[msg.sender] += msg.value */\n      dup3\n      dup3\n      sload\n      tag_44\n      swap2\n      swap1\n      tag_45\n      jump\t// in\n    tag_44:\n      swap3\n      pop\n      pop\n      dup2\n      swap1\n      sstore\n      pop\n        /* \"FundMe.sol\":438:804  function fund() public payable{... */\n      jump\t// out\n        /* \"FundMe.sol\":815:1621  function withdraw() public onlyOwner {... */\n    tag_17:\n        /* \"FundMe.sol\":2066:2073  i_owner */\n      immutable(\"0xbbd48b257be1b8216d144ef9be5734f8d11697959c9e0f7768bec89db74a63a3\")\n        /* \"FundMe.sol\":2052:2073  msg.sender != i_owner */\n      0xffffffffffffffffffffffffffffffffffffffff\n      and\n        /* \"FundMe.sol\":2052:2062  msg.sender */\n      caller\n        /* \"FundMe.sol\":2052:2073  msg.sender != i_owner */\n      0xffffffffffffffffffffffffffffffffffffffff\n      and\n      eq\n        /* \"FundMe.sol\":2049:2094  if(msg.sender != i_owner){revert NotOwner();} */\n      tag_47\n      jumpi\n        /* \"FundMe.sol\":2082:2092  NotOwner() */\n      mload(0x40)\n      0x30cd747100000000000000000000000000000000000000000000000000000000\n      dup2\n      mstore\n      0x04\n      add\n      mload(0x40)\n      dup1\n      swap2\n      sub\n      swap1\n      revert\n        /* \"FundMe.sol\":2049:2094  if(msg.sender != i_owner){revert NotOwner();} */\n    tag_47:\n        /* \"FundMe.sol\":866:885  uint256 funderIndex */\n      0x00\n        /* \"FundMe.sol\":862:1041  for(uint256 funderIndex = 0; funderIndex < funders.length; funderIndex++){... */\n    tag_49:\n        /* \"FundMe.sol\":905:912  funders */\n      0x00\n        /* \"FundMe.sol\":905:919  funders.length */\n      dup1\n      sload\n      swap1\n      pop\n        /* \"FundMe.sol\":891:902  funderIndex */\n      dup2\n        /* \"FundMe.sol\":891:919  funderIndex < funders.length */\n      lt\n        /* \"FundMe.sol\":862:1041  for(uint256 funderIndex = 0; funderIndex < funders.length; funderIndex++){... */\n      iszero\n      tag_50\n      jumpi\n        /* \"FundMe.sol\":949:963  address funder */\n      0x00\n        /* \"FundMe.sol\":966:973  funders */\n      dup1\n        /* \"FundMe.sol\":974:985  funderIndex */\n      dup3\n        /* \"FundMe.sol\":966:986  funders[funderIndex] */\n      dup2\n      sload\n      dup2\n      lt\n      tag_52\n      jumpi\n      tag_53\n      tag_54\n      jump\t// in\n    tag_53:\n    tag_52:\n      swap1\n      0x00\n      mstore\n      keccak256(0x00, 0x20)\n      add\n      0x00\n      swap1\n      sload\n      swap1\n      0x0100\n      exp\n      swap1\n      div\n      0xffffffffffffffffffffffffffffffffffffffff\n      and\n        /* \"FundMe.sol\":949:986  address funder = funders[funderIndex] */\n      swap1\n      pop\n        /* \"FundMe.sol\":1029:1030  0 */\n      0x00\n        /* \"FundMe.sol\":1000:1018  addrToFundedAmount */\n      0x01\n        /* \"FundMe.sol\":1000:1026  addrToFundedAmount[funder] */\n      0x00\n        /* \"FundMe.sol\":1019:1025  funder */\n      dup4\n        /* \"FundMe.sol\":1000:1026  addrToFundedAmount[funder] */\n      0xffffffffffffffffffffffffffffffffffffffff\n      and\n      0xffffffffffffffffffffffffffffffffffffffff\n      and\n      dup2\n      mstore\n      0x20\n      add\n      swap1\n      dup2\n      mstore\n      0x20\n      add\n      0x00\n      keccak256\n        /* \"FundMe.sol\":1000:1030  addrToFundedAmount[funder] = 0 */\n      dup2\n      swap1\n      sstore\n      pop\n        /* \"FundMe.sol\":935:1041  {... */\n      pop\n        /* \"FundMe.sol\":921:934  funderIndex++ */\n      dup1\n      dup1\n      0x01\n      add\n      swap2\n      pop\n      pop\n        /* \"FundMe.sol\":862:1041  for(uint256 funderIndex = 0; funderIndex < funders.length; funderIndex++){... */\n      jump(tag_49)\n    tag_50:\n      pop\n        /* \"FundMe.sol\":1109:1110  0 */\n      0x00\n        /* \"FundMe.sol\":1095:1111  new address[](0) */\n      0xffffffffffffffff\n      dup2\n      gt\n      iszero\n      tag_56\n      jumpi\n      tag_57\n      tag_58\n      jump\t// in\n    tag_57:\n    tag_56:\n      mload(0x40)\n      swap1\n      dup1\n      dup3\n      mstore\n      dup1\n      0x20\n      mul\n      0x20\n      add\n      dup3\n      add\n      0x40\n      mstore\n      dup1\n      iszero\n      tag_59\n      jumpi\n      dup2\n      0x20\n      add\n      0x20\n      dup3\n      mul\n      dup1\n      calldatasize\n      dup4\n      calldatacopy\n      dup1\n      dup3\n      add\n      swap2\n      pop\n      pop\n      swap1\n      pop\n    tag_59:\n      pop\n        /* \"FundMe.sol\":1085:1092  funders */\n      0x00\n        /* \"FundMe.sol\":1085:1111  funders = new address[](0) */\n      swap1\n      dup1\n      mload\n      swap1\n      0x20\n      add\n      swap1\n      tag_60\n      swap3\n      swap2\n      swap1\n      tag_61\n      jump\t// in\n    tag_60:\n      pop\n        /* \"FundMe.sol\":1490:1506  bool callSuccess */\n      0x00\n        /* \"FundMe.sol\":1519:1529  msg.sender */\n      caller\n        /* \"FundMe.sol\":1511:1535  payable(msg.sender).call */\n      0xffffffffffffffffffffffffffffffffffffffff\n      and\n        /* \"FundMe.sol\":1543:1564  address(this).balance */\n      selfbalance\n        /* \"FundMe.sol\":1511:1569  payable(msg.sender).call{value: address(this).balance}(\"\") */\n      mload(0x40)\n      tag_62\n      swap1\n      tag_63\n      jump\t// in\n    tag_62:\n      0x00\n      mload(0x40)\n      dup1\n      dup4\n      sub\n      dup2\n      dup6\n      dup8\n      gas\n      call\n      swap3\n      pop\n      pop\n      pop\n      returndatasize\n      dup1\n      0x00\n      dup2\n      eq\n      tag_66\n      jumpi\n      mload(0x40)\n      swap2\n      pop\n      and(add(returndatasize, 0x3f), not(0x1f))\n      dup3\n      add\n      0x40\n      mstore\n      returndatasize\n      dup3\n      mstore\n      returndatasize\n      0x00\n      0x20\n      dup5\n      add\n      returndatacopy\n      jump(tag_65)\n    tag_66:\n      0x60\n      swap2\n      pop\n    tag_65:\n      pop\n        /* \"FundMe.sol\":1489:1569  (bool callSuccess,) = payable(msg.sender).call{value: address(this).balance}(\"\") */\n      pop\n      swap1\n      pop\n        /* \"FundMe.sol\":1587:1598  callSuccess */\n      dup1\n        /* \"FundMe.sol\":1579:1614  require(callSuccess, \"call failed\") */\n      tag_67\n      jumpi\n      mload(0x40)\n      0x08c379a000000000000000000000000000000000000000000000000000000000\n      dup2\n      mstore\n      0x04\n      add\n      tag_68\n      swap1\n      tag_69\n      jump\t// in\n    tag_68:\n      mload(0x40)\n      dup1\n      swap2\n      sub\n      swap1\n      revert\n    tag_67:\n        /* \"FundMe.sol\":852:1621  {... */\n      pop\n        /* \"FundMe.sol\":815:1621  function withdraw() public onlyOwner {... */\n      jump\t// out\n        /* \"FundMe.sol\":299:372  mapping(address funder => uint256 amountFunded) public addrToFundedAmount */\n    tag_22:\n      mstore(0x20, 0x01)\n      dup1\n      0x00\n      mstore\n      keccak256(0x00, 0x40)\n      0x00\n      swap2\n      pop\n      swap1\n      pop\n      sload\n      dup2\n      jump\t// out\n        /* \"FundMe.sol\":152:184  address public immutable i_owner */\n    tag_28:\n      immutable(\"0xbbd48b257be1b8216d144ef9be5734f8d11697959c9e0f7768bec89db74a63a3\")\n      dup2\n      jump\t// out\n        /* \"FundMe.sol\":228:252  address[] public funders */\n    tag_35:\n      0x00\n      dup2\n      dup2\n      sload\n      dup2\n      lt\n      tag_70\n      jumpi\n      0x00\n      dup1\n      revert\n    tag_70:\n      swap1\n      0x00\n      mstore\n      keccak256(0x00, 0x20)\n      add\n      0x00\n      swap2\n      pop\n      sload\n      swap1\n      0x0100\n      exp\n      swap1\n      div\n      0xffffffffffffffffffffffffffffffffffffffff\n      and\n      dup2\n      jump\t// out\n        /* \"PriceConverter.sol\":467:678  function getConversionRate(uint256 eth_amount) internal view returns(uint256){... */\n    tag_39:\n        /* \"PriceConverter.sol\":536:543  uint256 */\n      0x00\n        /* \"PriceConverter.sol\":554:567  uint ethPrice */\n      dup1\n        /* \"PriceConverter.sol\":570:580  getprice() */\n      tag_73\n        /* \"PriceConverter.sol\":570:578  getprice */\n      tag_74\n        /* \"PriceConverter.sol\":570:580  getprice() */\n      jump\t// in\n    tag_73:\n        /* \"PriceConverter.sol\":554:580  uint ethPrice = getprice() */\n      swap1\n      pop\n        /* \"PriceConverter.sol\":590:608  uint ethPriceInUsd */\n      0x00\n        /* \"PriceConverter.sol\":637:641  1e18 */\n      0x0de0b6b3a7640000\n        /* \"PriceConverter.sol\":625:633  ethPrice */\n      dup3\n        /* \"PriceConverter.sol\":612:622  eth_amount */\n      dup6\n        /* \"PriceConverter.sol\":612:633  eth_amount * ethPrice */\n      tag_75\n      swap2\n      swap1\n      tag_76\n      jump\t// in\n    tag_75:\n        /* \"PriceConverter.sol\":611:641  (eth_amount * ethPrice) / 1e18 */\n      tag_77\n      swap2\n      swap1\n      tag_78\n      jump\t// in\n    tag_77:\n        /* \"PriceConverter.sol\":590:641  uint ethPriceInUsd = (eth_amount * ethPrice) / 1e18 */\n      swap1\n      pop\n        /* \"PriceConverter.sol\":658:671  ethPriceInUsd */\n      dup1\n        /* \"PriceConverter.sol\":651:671  return ethPriceInUsd */\n      swap3\n      pop\n      pop\n      pop\n        /* \"PriceConverter.sol\":467:678  function getConversionRate(uint256 eth_amount) internal view returns(uint256){... */\n      swap2\n      swap1\n      pop\n      jump\t// out\n        /* \"PriceConverter.sol\":201:462  function getprice() internal view returns (uint256){... */\n    tag_74:\n        /* \"PriceConverter.sol\":244:251  uint256 */\n      0x00\n        /* \"PriceConverter.sol\":262:293  AggregatorV3Interface priceFeed */\n      dup1\n        /* \"PriceConverter.sol\":318:360  0x694AA1769357215DE4FAC081bf1f309aDC325306 */\n      0x694aa1769357215de4fac081bf1f309adc325306\n        /* \"PriceConverter.sol\":262:361  AggregatorV3Interface priceFeed = AggregatorV3Interface(0x694AA1769357215DE4FAC081bf1f309aDC325306) */\n      swap1\n      pop\n        /* \"PriceConverter.sol\":374:386  int256 price */\n      0x00\n        /* \"PriceConverter.sol\":393:402  priceFeed */\n      dup2\n        /* \"PriceConverter.sol\":393:418  priceFeed.latestRoundData */\n      0xffffffffffffffffffffffffffffffffffffffff\n      and\n      0xfeaf968c\n        /* \"PriceConverter.sol\":393:420  priceFeed.latestRoundData() */\n      mload(0x40)\n      dup2\n      0xffffffff\n      and\n      0xe0\n      shl\n      dup2\n      mstore\n      0x04\n      add\n      0xa0\n      mload(0x40)\n      dup1\n      dup4\n      sub\n      dup2\n      dup7\n      gas\n      staticcall\n      iszero\n      dup1\n      iszero\n      tag_81\n      jumpi\n      returndatasize\n      0x00\n      dup1\n      returndatacopy\n      revert(0x00, returndatasize)\n    tag_81:\n      pop\n      pop\n      pop\n      pop\n      mload(0x40)\n      returndatasize\n      not(0x1f)\n      0x1f\n      dup3\n      add\n      and\n      dup3\n      add\n      dup1\n      0x40\n      mstore\n      pop\n      dup2\n      add\n      swap1\n      tag_82\n      swap2\n      swap1\n      tag_83\n      jump\t// in\n    tag_82:\n        /* \"PriceConverter.sol\":371:420  (, int256 price,,,) = priceFeed.latestRoundData() */\n      pop\n      pop\n      pop\n      swap2\n      pop\n      pop\n        /* \"PriceConverter.sol\":450:454  1e10 */\n      0x02540be400\n        /* \"PriceConverter.sol\":442:447  price */\n      dup2\n        /* \"PriceConverter.sol\":442:454  price * 1e10 */\n      tag_84\n      swap2\n      swap1\n      tag_85\n      jump\t// in\n    tag_84:\n        /* \"PriceConverter.sol\":430:455  return uint(price * 1e10) */\n      swap3\n      pop\n      pop\n      pop\n        /* \"PriceConverter.sol\":201:462  function getprice() internal view returns (uint256){... */\n      swap1\n      jump\t// out\n    tag_61:\n      dup3\n      dup1\n      sload\n      dup3\n      dup3\n      sstore\n      swap1\n      0x00\n      mstore\n      keccak256(0x00, 0x20)\n      swap1\n      dup2\n      add\n      swap3\n      dup3\n      iszero\n      tag_86\n      jumpi\n      swap2\n      0x20\n      mul\n      dup3\n      add\n    tag_87:\n      dup3\n      dup2\n      gt\n      iszero\n      tag_88\n      jumpi\n      dup3\n      mload\n      dup3\n      exp(0x0100, 0x00)\n      dup2\n      sload\n      dup2\n      0xffffffffffffffffffffffffffffffffffffffff\n      mul\n      not\n      and\n      swap1\n      dup4\n      0xffffffffffffffffffffffffffffffffffffffff\n      and\n      mul\n      or\n      swap1\n      sstore\n      pop\n      swap2\n      0x20\n      add\n      swap2\n      swap1\n      0x01\n      add\n      swap1\n      jump(tag_87)\n    tag_88:\n    tag_86:\n      pop\n      swap1\n      pop\n      tag_89\n      swap2\n      swap1\n      tag_90\n      jump\t// in\n    tag_89:\n      pop\n      swap1\n      jump\t// out\n    tag_90:\n    tag_91:\n      dup1\n      dup3\n      gt\n      iszero\n      tag_92\n      jumpi\n      0x00\n      dup2\n      0x00\n      swap1\n      sstore\n      pop\n      0x01\n      add\n      jump(tag_91)\n    tag_92:\n      pop\n      swap1\n      jump\t// out\n        /* \"#utility.yul\":88:205   */\n    tag_94:\n        /* \"#utility.yul\":197:198   */\n      0x00\n        /* \"#utility.yul\":194:195   */\n      dup1\n        /* \"#utility.yul\":187:199   */\n      revert\n        /* \"#utility.yul\":334:460   */\n    tag_96:\n        /* \"#utility.yul\":371:378   */\n      0x00\n        /* \"#utility.yul\":411:453   */\n      0xffffffffffffffffffffffffffffffffffffffff\n        /* \"#utility.yul\":404:409   */\n      dup3\n        /* \"#utility.yul\":400:454   */\n      and\n        /* \"#utility.yul\":389:454   */\n      swap1\n      pop\n        /* \"#utility.yul\":334:460   */\n      swap2\n      swap1\n      pop\n      jump\t// out\n        /* \"#utility.yul\":466:562   */\n    tag_97:\n        /* \"#utility.yul\":503:510   */\n      0x00\n        /* \"#utility.yul\":532:556   */\n      tag_128\n        /* \"#utility.yul\":550:555   */\n      dup3\n        /* \"#utility.yul\":532:556   */\n      tag_96\n      jump\t// in\n    tag_128:\n        /* \"#utility.yul\":521:556   */\n      swap1\n      pop\n        /* \"#utility.yul\":466:562   */\n      swap2\n      swap1\n      pop\n      jump\t// out\n        /* \"#utility.yul\":568:690   */\n    tag_98:\n        /* \"#utility.yul\":641:665   */\n      tag_130\n        /* \"#utility.yul\":659:664   */\n      dup2\n        /* \"#utility.yul\":641:665   */\n      tag_97\n      jump\t// in\n    tag_130:\n        /* \"#utility.yul\":634:639   */\n      dup2\n        /* \"#utility.yul\":631:666   */\n      eq\n        /* \"#utility.yul\":621:684   */\n      tag_131\n      jumpi\n        /* \"#utility.yul\":680:681   */\n      0x00\n        /* \"#utility.yul\":677:678   */\n      dup1\n        /* \"#utility.yul\":670:682   */\n      revert\n        /* \"#utility.yul\":621:684   */\n    tag_131:\n        /* \"#utility.yul\":568:690   */\n      pop\n      jump\t// out\n        /* \"#utility.yul\":696:835   */\n    tag_99:\n        /* \"#utility.yul\":742:747   */\n      0x00\n        /* \"#utility.yul\":780:786   */\n      dup2\n        /* \"#utility.yul\":767:787   */\n      calldataload\n        /* \"#utility.yul\":758:787   */\n      swap1\n      pop\n        /* \"#utility.yul\":796:829   */\n      tag_133\n        /* \"#utility.yul\":823:828   */\n      dup2\n        /* \"#utility.yul\":796:829   */\n      tag_98\n      jump\t// in\n    tag_133:\n        /* \"#utility.yul\":696:835   */\n      swap3\n      swap2\n      pop\n      pop\n      jump\t// out\n        /* \"#utility.yul\":841:1170   */\n    tag_21:\n        /* \"#utility.yul\":900:906   */\n      0x00\n        /* \"#utility.yul\":949:951   */\n      0x20\n        /* \"#utility.yul\":937:946   */\n      dup3\n        /* \"#utility.yul\":928:935   */\n      dup5\n        /* \"#utility.yul\":924:947   */\n      sub\n        /* \"#utility.yul\":920:952   */\n      slt\n        /* \"#utility.yul\":917:1036   */\n      iszero\n      tag_135\n      jumpi\n        /* \"#utility.yul\":955:1034   */\n      tag_136\n      tag_94\n      jump\t// in\n    tag_136:\n        /* \"#utility.yul\":917:1036   */\n    tag_135:\n        /* \"#utility.yul\":1075:1076   */\n      0x00\n        /* \"#utility.yul\":1100:1153   */\n      tag_137\n        /* \"#utility.yul\":1145:1152   */\n      dup5\n        /* \"#utility.yul\":1136:1142   */\n      dup3\n        /* \"#utility.yul\":1125:1134   */\n      dup6\n        /* \"#utility.yul\":1121:1143   */\n      add\n        /* \"#utility.yul\":1100:1153   */\n      tag_99\n      jump\t// in\n    tag_137:\n        /* \"#utility.yul\":1090:1153   */\n      swap2\n      pop\n        /* \"#utility.yul\":1046:1163   */\n      pop\n        /* \"#utility.yul\":841:1170   */\n      swap3\n      swap2\n      pop\n      pop\n      jump\t// out\n        /* \"#utility.yul\":1176:1253   */\n    tag_100:\n        /* \"#utility.yul\":1213:1220   */\n      0x00\n        /* \"#utility.yul\":1242:1247   */\n      dup2\n        /* \"#utility.yul\":1231:1247   */\n      swap1\n      pop\n        /* \"#utility.yul\":1176:1253   */\n      swap2\n      swap1\n      pop\n      jump\t// out\n        /* \"#utility.yul\":1259:1377   */\n    tag_101:\n        /* \"#utility.yul\":1346:1370   */\n      tag_140\n        /* \"#utility.yul\":1364:1369   */\n      dup2\n        /* \"#utility.yul\":1346:1370   */\n      tag_100\n      jump\t// in\n    tag_140:\n        /* \"#utility.yul\":1341:1344   */\n      dup3\n        /* \"#utility.yul\":1334:1371   */\n      mstore\n        /* \"#utility.yul\":1259:1377   */\n      pop\n      pop\n      jump\t// out\n        /* \"#utility.yul\":1383:1605   */\n    tag_24:\n        /* \"#utility.yul\":1476:1480   */\n      0x00\n        /* \"#utility.yul\":1514:1516   */\n      0x20\n        /* \"#utility.yul\":1503:1512   */\n      dup3\n        /* \"#utility.yul\":1499:1517   */\n      add\n        /* \"#utility.yul\":1491:1517   */\n      swap1\n      pop\n        /* \"#utility.yul\":1527:1598   */\n      tag_142\n        /* \"#utility.yul\":1595:1596   */\n      0x00\n        /* \"#utility.yul\":1584:1593   */\n      dup4\n        /* \"#utility.yul\":1580:1597   */\n      add\n        /* \"#utility.yul\":1571:1577   */\n      dup5\n        /* \"#utility.yul\":1527:1598   */\n      tag_101\n      jump\t// in\n    tag_142:\n        /* \"#utility.yul\":1383:1605   */\n      swap3\n      swap2\n      pop\n      pop\n      jump\t// out\n        /* \"#utility.yul\":1611:1729   */\n    tag_102:\n        /* \"#utility.yul\":1698:1722   */\n      tag_144\n        /* \"#utility.yul\":1716:1721   */\n      dup2\n        /* \"#utility.yul\":1698:1722   */\n      tag_97\n      jump\t// in\n    tag_144:\n        /* \"#utility.yul\":1693:1696   */\n      dup3\n        /* \"#utility.yul\":1686:1723   */\n      mstore\n        /* \"#utility.yul\":1611:1729   */\n      pop\n      pop\n      jump\t// out\n        /* \"#utility.yul\":1735:1957   */\n    tag_30:\n        /* \"#utility.yul\":1828:1832   */\n      0x00\n        /* \"#utility.yul\":1866:1868   */\n      0x20\n        /* \"#utility.yul\":1855:1864   */\n      dup3\n        /* \"#utility.yul\":1851:1869   */\n      add\n        /* \"#utility.yul\":1843:1869   */\n      swap1\n      pop\n        /* \"#utility.yul\":1879:1950   */\n      tag_146\n        /* \"#utility.yul\":1947:1948   */\n      0x00\n        /* \"#utility.yul\":1936:1945   */\n      dup4\n        /* \"#utility.yul\":1932:1949   */\n      add\n        /* \"#utility.yul\":1923:1929   */\n      dup5\n        /* \"#utility.yul\":1879:1950   */\n      tag_102\n      jump\t// in\n    tag_146:\n        /* \"#utility.yul\":1735:1957   */\n      swap3\n      swap2\n      pop\n      pop\n      jump\t// out\n        /* \"#utility.yul\":1963:2085   */\n    tag_103:\n        /* \"#utility.yul\":2036:2060   */\n      tag_148\n        /* \"#utility.yul\":2054:2059   */\n      dup2\n        /* \"#utility.yul\":2036:2060   */\n      tag_100\n      jump\t// in\n    tag_148:\n        /* \"#utility.yul\":2029:2034   */\n      dup2\n        /* \"#utility.yul\":2026:2061   */\n      eq\n        /* \"#utility.yul\":2016:2079   */\n      tag_149\n      jumpi\n        /* \"#utility.yul\":2075:2076   */\n      0x00\n        /* \"#utility.yul\":2072:2073   */\n      dup1\n        /* \"#utility.yul\":2065:2077   */\n      revert\n        /* \"#utility.yul\":2016:2079   */\n    tag_149:\n        /* \"#utility.yul\":1963:2085   */\n      pop\n      jump\t// out\n        /* \"#utility.yul\":2091:2230   */\n    tag_104:\n        /* \"#utility.yul\":2137:2142   */\n      0x00\n        /* \"#utility.yul\":2175:2181   */\n      dup2\n        /* \"#utility.yul\":2162:2182   */\n      calldataload\n        /* \"#utility.yul\":2153:2182   */\n      swap1\n      pop\n        /* \"#utility.yul\":2191:2224   */\n      tag_151\n        /* \"#utility.yul\":2218:2223   */\n      dup2\n        /* \"#utility.yul\":2191:2224   */\n      tag_103\n      jump\t// in\n    tag_151:\n        /* \"#utility.yul\":2091:2230   */\n      swap3\n      swap2\n      pop\n      pop\n      jump\t// out\n        /* \"#utility.yul\":2236:2565   */\n    tag_34:\n        /* \"#utility.yul\":2295:2301   */\n      0x00\n        /* \"#utility.yul\":2344:2346   */\n      0x20\n        /* \"#utility.yul\":2332:2341   */\n      dup3\n        /* \"#utility.yul\":2323:2330   */\n      dup5\n        /* \"#utility.yul\":2319:2342   */\n      sub\n        /* \"#utility.yul\":2315:2347   */\n      slt\n        /* \"#utility.yul\":2312:2431   */\n      iszero\n      tag_153\n      jumpi\n        /* \"#utility.yul\":2350:2429   */\n      tag_154\n      tag_94\n      jump\t// in\n    tag_154:\n        /* \"#utility.yul\":2312:2431   */\n    tag_153:\n        /* \"#utility.yul\":2470:2471   */\n      0x00\n        /* \"#utility.yul\":2495:2548   */\n      tag_155\n        /* \"#utility.yul\":2540:2547   */\n      dup5\n        /* \"#utility.yul\":2531:2537   */\n      dup3\n        /* \"#utility.yul\":2520:2529   */\n      dup6\n        /* \"#utility.yul\":2516:2538   */\n      add\n        /* \"#utility.yul\":2495:2548   */\n      tag_104\n      jump\t// in\n    tag_155:\n        /* \"#utility.yul\":2485:2548   */\n      swap2\n      pop\n        /* \"#utility.yul\":2441:2558   */\n      pop\n        /* \"#utility.yul\":2236:2565   */\n      swap3\n      swap2\n      pop\n      pop\n      jump\t// out\n        /* \"#utility.yul\":2571:2740   */\n    tag_105:\n        /* \"#utility.yul\":2655:2666   */\n      0x00\n        /* \"#utility.yul\":2689:2695   */\n      dup3\n        /* \"#utility.yul\":2684:2687   */\n      dup3\n        /* \"#utility.yul\":2677:2696   */\n      mstore\n        /* \"#utility.yul\":2729:2733   */\n      0x20\n        /* \"#utility.yul\":2724:2727   */\n      dup3\n        /* \"#utility.yul\":2720:2734   */\n      add\n        /* \"#utility.yul\":2705:2734   */\n      swap1\n      pop\n        /* \"#utility.yul\":2571:2740   */\n      swap3\n      swap2\n      pop\n      pop\n      jump\t// out\n        /* \"#utility.yul\":2746:2923   */\n    tag_106:\n        /* \"#utility.yul\":2886:2915   */\n      0x696e73756666696369656e742066756e6420696e2077616c6c65740000000000\n        /* \"#utility.yul\":2882:2883   */\n      0x00\n        /* \"#utility.yul\":2874:2880   */\n      dup3\n        /* \"#utility.yul\":2870:2884   */\n      add\n        /* \"#utility.yul\":2863:2916   */\n      mstore\n        /* \"#utility.yul\":2746:2923   */\n      pop\n      jump\t// out\n        /* \"#utility.yul\":2929:3295   */\n    tag_107:\n        /* \"#utility.yul\":3071:3074   */\n      0x00\n        /* \"#utility.yul\":3092:3159   */\n      tag_159\n        /* \"#utility.yul\":3156:3158   */\n      0x1b\n        /* \"#utility.yul\":3151:3154   */\n      dup4\n        /* \"#utility.yul\":3092:3159   */\n      tag_105\n      jump\t// in\n    tag_159:\n        /* \"#utility.yul\":3085:3159   */\n      swap2\n      pop\n        /* \"#utility.yul\":3168:3261   */\n      tag_160\n        /* \"#utility.yul\":3257:3260   */\n      dup3\n        /* \"#utility.yul\":3168:3261   */\n      tag_106\n      jump\t// in\n    tag_160:\n        /* \"#utility.yul\":3286:3288   */\n      0x20\n        /* \"#utility.yul\":3281:3284   */\n      dup3\n        /* \"#utility.yul\":3277:3289   */\n      add\n        /* \"#utility.yul\":3270:3289   */\n      swap1\n      pop\n        /* \"#utility.yul\":2929:3295   */\n      swap2\n      swap1\n      pop\n      jump\t// out\n        /* \"#utility.yul\":3301:3720   */\n    tag_42:\n        /* \"#utility.yul\":3467:3471   */\n      0x00\n        /* \"#utility.yul\":3505:3507   */\n      0x20\n        /* \"#utility.yul\":3494:3503   */\n      dup3\n        /* \"#utility.yul\":3490:3508   */\n      add\n        /* \"#utility.yul\":3482:3508   */\n      swap1\n      pop\n        /* \"#utility.yul\":3554:3563   */\n      dup2\n        /* \"#utility.yul\":3548:3552   */\n      dup2\n        /* \"#utility.yul\":3544:3564   */\n      sub\n        /* \"#utility.yul\":3540:3541   */\n      0x00\n        /* \"#utility.yul\":3529:3538   */\n      dup4\n        /* \"#utility.yul\":3525:3542   */\n      add\n        /* \"#utility.yul\":3518:3565   */\n      mstore\n        /* \"#utility.yul\":3582:3713   */\n      tag_162\n        /* \"#utility.yul\":3708:3712   */\n      dup2\n        /* \"#utility.yul\":3582:3713   */\n      tag_107\n      jump\t// in\n    tag_162:\n        /* \"#utility.yul\":3574:3713   */\n      swap1\n      pop\n        /* \"#utility.yul\":3301:3720   */\n      swap2\n      swap1\n      pop\n      jump\t// out\n        /* \"#utility.yul\":3726:3906   */\n    tag_108:\n        /* \"#utility.yul\":3774:3851   */\n      0x4e487b7100000000000000000000000000000000000000000000000000000000\n        /* \"#utility.yul\":3771:3772   */\n      0x00\n        /* \"#utility.yul\":3764:3852   */\n      mstore\n        /* \"#utility.yul\":3871:3875   */\n      0x11\n        /* \"#utility.yul\":3868:3869   */\n      0x04\n        /* \"#utility.yul\":3861:3876   */\n      mstore\n        /* \"#utility.yul\":3895:3899   */\n      0x24\n        /* \"#utility.yul\":3892:3893   */\n      0x00\n        /* \"#utility.yul\":3885:3900   */\n      revert\n        /* \"#utility.yul\":3912:4103   */\n    tag_45:\n        /* \"#utility.yul\":3952:3955   */\n      0x00\n        /* \"#utility.yul\":3971:3991   */\n      tag_165\n        /* \"#utility.yul\":3989:3990   */\n      dup3\n        /* \"#utility.yul\":3971:3991   */\n      tag_100\n      jump\t// in\n    tag_165:\n        /* \"#utility.yul\":3966:3991   */\n      swap2\n      pop\n        /* \"#utility.yul\":4005:4025   */\n      tag_166\n        /* \"#utility.yul\":4023:4024   */\n      dup4\n        /* \"#utility.yul\":4005:4025   */\n      tag_100\n      jump\t// in\n    tag_166:\n        /* \"#utility.yul\":4000:4025   */\n      swap3\n      pop\n        /* \"#utility.yul\":4048:4049   */\n      dup3\n        /* \"#utility.yul\":4045:4046   */\n      dup3\n        /* \"#utility.yul\":4041:4050   */\n      add\n        /* \"#utility.yul\":4034:4050   */\n      swap1\n      pop\n        /* \"#utility.yul\":4069:4072   */\n      dup1\n        /* \"#utility.yul\":4066:4067   */\n      dup3\n        /* \"#utility.yul\":4063:4073   */\n      gt\n        /* \"#utility.yul\":4060:4096   */\n      iszero\n      tag_167\n      jumpi\n        /* \"#utility.yul\":4076:4094   */\n      tag_168\n      tag_108\n      jump\t// in\n    tag_168:\n        /* \"#utility.yul\":4060:4096   */\n    tag_167:\n        /* \"#utility.yul\":3912:4103   */\n      swap3\n      swap2\n      pop\n      pop\n      jump\t// out\n        /* \"#utility.yul\":4109:4289   */\n    tag_54:\n        /* \"#utility.yul\":4157:4234   */\n      0x4e487b7100000000000000000000000000000000000000000000000000000000\n        /* \"#utility.yul\":4154:4155   */\n      0x00\n        /* \"#utility.yul\":4147:4235   */\n      mstore\n        /* \"#utility.yul\":4254:4258   */\n      0x32\n        /* \"#utility.yul\":4251:4252   */\n      0x04\n        /* \"#utility.yul\":4244:4259   */\n      mstore\n        /* \"#utility.yul\":4278:4282   */\n      0x24\n        /* \"#utility.yul\":4275:4276   */\n      0x00\n        /* \"#utility.yul\":4268:4283   */\n      revert\n        /* \"#utility.yul\":4295:4475   */\n    tag_58:\n        /* \"#utility.yul\":4343:4420   */\n      0x4e487b7100000000000000000000000000000000000000000000000000000000\n        /* \"#utility.yul\":4340:4341   */\n      0x00\n        /* \"#utility.yul\":4333:4421   */\n      mstore\n        /* \"#utility.yul\":4440:4444   */\n      0x41\n        /* \"#utility.yul\":4437:4438   */\n      0x04\n        /* \"#utility.yul\":4430:4445   */\n      mstore\n        /* \"#utility.yul\":4464:4468   */\n      0x24\n        /* \"#utility.yul\":4461:4462   */\n      0x00\n        /* \"#utility.yul\":4454:4469   */\n      revert\n        /* \"#utility.yul\":4481:4628   */\n    tag_109:\n        /* \"#utility.yul\":4582:4593   */\n      0x00\n        /* \"#utility.yul\":4619:4622   */\n      dup2\n        /* \"#utility.yul\":4604:4622   */\n      swap1\n      pop\n        /* \"#utility.yul\":4481:4628   */\n      swap3\n      swap2\n      pop\n      pop\n      jump\t// out\n        /* \"#utility.yul\":4634:4748   */\n    tag_110:\n      pop\n      jump\t// out\n        /* \"#utility.yul\":4754:5152   */\n    tag_111:\n        /* \"#utility.yul\":4913:4916   */\n      0x00\n        /* \"#utility.yul\":4934:5017   */\n      tag_174\n        /* \"#utility.yul\":5015:5016   */\n      0x00\n        /* \"#utility.yul\":5010:5013   */\n      dup4\n        /* \"#utility.yul\":4934:5017   */\n      tag_109\n      jump\t// in\n    tag_174:\n        /* \"#utility.yul\":4927:5017   */\n      swap2\n      pop\n        /* \"#utility.yul\":5026:5119   */\n      tag_175\n        /* \"#utility.yul\":5115:5118   */\n      dup3\n        /* \"#utility.yul\":5026:5119   */\n      tag_110\n      jump\t// in\n    tag_175:\n        /* \"#utility.yul\":5144:5145   */\n      0x00\n        /* \"#utility.yul\":5139:5142   */\n      dup3\n        /* \"#utility.yul\":5135:5146   */\n      add\n        /* \"#utility.yul\":5128:5146   */\n      swap1\n      pop\n        /* \"#utility.yul\":4754:5152   */\n      swap2\n      swap1\n      pop\n      jump\t// out\n        /* \"#utility.yul\":5158:5537   */\n    tag_63:\n        /* \"#utility.yul\":5342:5345   */\n      0x00\n        /* \"#utility.yul\":5364:5511   */\n      tag_177\n        /* \"#utility.yul\":5507:5510   */\n      dup3\n        /* \"#utility.yul\":5364:5511   */\n      tag_111\n      jump\t// in\n    tag_177:\n        /* \"#utility.yul\":5357:5511   */\n      swap2\n      pop\n        /* \"#utility.yul\":5528:5531   */\n      dup2\n        /* \"#utility.yul\":5521:5531   */\n      swap1\n      pop\n        /* \"#utility.yul\":5158:5537   */\n      swap2\n      swap1\n      pop\n      jump\t// out\n        /* \"#utility.yul\":5543:5704   */\n    tag_112:\n        /* \"#utility.yul\":5683:5696   */\n      0x63616c6c206661696c6564000000000000000000000000000000000000000000\n        /* \"#utility.yul\":5679:5680   */\n      0x00\n        /* \"#utility.yul\":5671:5677   */\n      dup3\n        /* \"#utility.yul\":5667:5681   */\n      add\n        /* \"#utility.yul\":5660:5697   */\n      mstore\n        /* \"#utility.yul\":5543:5704   */\n      pop\n      jump\t// out\n        /* \"#utility.yul\":5710:6076   */\n    tag_113:\n        /* \"#utility.yul\":5852:5855   */\n      0x00\n        /* \"#utility.yul\":5873:5940   */\n      tag_180\n        /* \"#utility.yul\":5937:5939   */\n      0x0b\n        /* \"#utility.yul\":5932:5935   */\n      dup4\n        /* \"#utility.yul\":5873:5940   */\n      tag_105\n      jump\t// in\n    tag_180:\n        /* \"#utility.yul\":5866:5940   */\n      swap2\n      pop\n        /* \"#utility.yul\":5949:6042   */\n      tag_181\n        /* \"#utility.yul\":6038:6041   */\n      dup3\n        /* \"#utility.yul\":5949:6042   */\n      tag_112\n      jump\t// in\n    tag_181:\n        /* \"#utility.yul\":6067:6069   */\n      0x20\n        /* \"#utility.yul\":6062:6065   */\n      dup3\n        /* \"#utility.yul\":6058:6070   */\n      add\n        /* \"#utility.yul\":6051:6070   */\n      swap1\n      pop\n        /* \"#utility.yul\":5710:6076   */\n      swap2\n      swap1\n      pop\n      jump\t// out\n        /* \"#utility.yul\":6082:6501   */\n    tag_69:\n        /* \"#utility.yul\":6248:6252   */\n      0x00\n        /* \"#utility.yul\":6286:6288   */\n      0x20\n        /* \"#utility.yul\":6275:6284   */\n      dup3\n        /* \"#utility.yul\":6271:6289   */\n      add\n        /* \"#utility.yul\":6263:6289   */\n      swap1\n      pop\n        /* \"#utility.yul\":6335:6344   */\n      dup2\n        /* \"#utility.yul\":6329:6333   */\n      dup2\n        /* \"#utility.yul\":6325:6345   */\n      sub\n        /* \"#utility.yul\":6321:6322   */\n      0x00\n        /* \"#utility.yul\":6310:6319   */\n      dup4\n        /* \"#utility.yul\":6306:6323   */\n      add\n        /* \"#utility.yul\":6299:6346   */\n      mstore\n        /* \"#utility.yul\":6363:6494   */\n      tag_183\n        /* \"#utility.yul\":6489:6493   */\n      dup2\n        /* \"#utility.yul\":6363:6494   */\n      tag_113\n      jump\t// in\n    tag_183:\n        /* \"#utility.yul\":6355:6494   */\n      swap1\n      pop\n        /* \"#utility.yul\":6082:6501   */\n      swap2\n      swap1\n      pop\n      jump\t// out\n        /* \"#utility.yul\":6507:6917   */\n    tag_76:\n        /* \"#utility.yul\":6547:6554   */\n      0x00\n        /* \"#utility.yul\":6570:6590   */\n      tag_185\n        /* \"#utility.yul\":6588:6589   */\n      dup3\n        /* \"#utility.yul\":6570:6590   */\n      tag_100\n      jump\t// in\n    tag_185:\n        /* \"#utility.yul\":6565:6590   */\n      swap2\n      pop\n        /* \"#utility.yul\":6604:6624   */\n      tag_186\n        /* \"#utility.yul\":6622:6623   */\n      dup4\n        /* \"#utility.yul\":6604:6624   */\n      tag_100\n      jump\t// in\n    tag_186:\n        /* \"#utility.yul\":6599:6624   */\n      swap3\n      pop\n        /* \"#utility.yul\":6659:6660   */\n      dup3\n        /* \"#utility.yul\":6656:6657   */\n      dup3\n        /* \"#utility.yul\":6652:6661   */\n      mul\n        /* \"#utility.yul\":6681:6711   */\n      tag_187\n        /* \"#utility.yul\":6699:6710   */\n      dup2\n        /* \"#utility.yul\":6681:6711   */\n      tag_100\n      jump\t// in\n    tag_187:\n        /* \"#utility.yul\":6670:6711   */\n      swap2\n      pop\n        /* \"#utility.yul\":6860:6861   */\n      dup3\n        /* \"#utility.yul\":6851:6858   */\n      dup3\n        /* \"#utility.yul\":6847:6862   */\n      div\n        /* \"#utility.yul\":6844:6845   */\n      dup5\n        /* \"#utility.yul\":6841:6863   */\n      eq\n        /* \"#utility.yul\":6821:6822   */\n      dup4\n        /* \"#utility.yul\":6814:6823   */\n      iszero\n        /* \"#utility.yul\":6794:6877   */\n      or\n        /* \"#utility.yul\":6771:6910   */\n      tag_188\n      jumpi\n        /* \"#utility.yul\":6890:6908   */\n      tag_189\n      tag_108\n      jump\t// in\n    tag_189:\n        /* \"#utility.yul\":6771:6910   */\n    tag_188:\n        /* \"#utility.yul\":6555:6917   */\n      pop\n        /* \"#utility.yul\":6507:6917   */\n      swap3\n      swap2\n      pop\n      pop\n      jump\t// out\n        /* \"#utility.yul\":6923:7103   */\n    tag_114:\n        /* \"#utility.yul\":6971:7048   */\n      0x4e487b7100000000000000000000000000000000000000000000000000000000\n        /* \"#utility.yul\":6968:6969   */\n      0x00\n        /* \"#utility.yul\":6961:7049   */\n      mstore\n        /* \"#utility.yul\":7068:7072   */\n      0x12\n        /* \"#utility.yul\":7065:7066   */\n      0x04\n        /* \"#utility.yul\":7058:7073   */\n      mstore\n        /* \"#utility.yul\":7092:7096   */\n      0x24\n        /* \"#utility.yul\":7089:7090   */\n      0x00\n        /* \"#utility.yul\":7082:7097   */\n      revert\n        /* \"#utility.yul\":7109:7294   */\n    tag_78:\n        /* \"#utility.yul\":7149:7150   */\n      0x00\n        /* \"#utility.yul\":7166:7186   */\n      tag_192\n        /* \"#utility.yul\":7184:7185   */\n      dup3\n        /* \"#utility.yul\":7166:7186   */\n      tag_100\n      jump\t// in\n    tag_192:\n        /* \"#utility.yul\":7161:7186   */\n      swap2\n      pop\n        /* \"#utility.yul\":7200:7220   */\n      tag_193\n        /* \"#utility.yul\":7218:7219   */\n      dup4\n        /* \"#utility.yul\":7200:7220   */\n      tag_100\n      jump\t// in\n    tag_193:\n        /* \"#utility.yul\":7195:7220   */\n      swap3\n      pop\n        /* \"#utility.yul\":7239:7240   */\n      dup3\n        /* \"#utility.yul\":7229:7264   */\n      tag_194\n      jumpi\n        /* \"#utility.yul\":7244:7262   */\n      tag_195\n      tag_114\n      jump\t// in\n    tag_195:\n        /* \"#utility.yul\":7229:7264   */\n    tag_194:\n        /* \"#utility.yul\":7286:7287   */\n      dup3\n        /* \"#utility.yul\":7283:7284   */\n      dup3\n        /* \"#utility.yul\":7279:7288   */\n      div\n        /* \"#utility.yul\":7274:7288   */\n      swap1\n      pop\n        /* \"#utility.yul\":7109:7294   */\n      swap3\n      swap2\n      pop\n      pop\n      jump\t// out\n        /* \"#utility.yul\":7300:7405   */\n    tag_115:\n        /* \"#utility.yul\":7336:7343   */\n      0x00\n        /* \"#utility.yul\":7376:7398   */\n      0xffffffffffffffffffff\n        /* \"#utility.yul\":7369:7374   */\n      dup3\n        /* \"#utility.yul\":7365:7399   */\n      and\n        /* \"#utility.yul\":7354:7399   */\n      swap1\n      pop\n        /* \"#utility.yul\":7300:7405   */\n      swap2\n      swap1\n      pop\n      jump\t// out\n        /* \"#utility.yul\":7411:7531   */\n    tag_116:\n        /* \"#utility.yul\":7483:7506   */\n      tag_198\n        /* \"#utility.yul\":7500:7505   */\n      dup2\n        /* \"#utility.yul\":7483:7506   */\n      tag_115\n      jump\t// in\n    tag_198:\n        /* \"#utility.yul\":7476:7481   */\n      dup2\n        /* \"#utility.yul\":7473:7507   */\n      eq\n        /* \"#utility.yul\":7463:7525   */\n      tag_199\n      jumpi\n        /* \"#utility.yul\":7521:7522   */\n      0x00\n        /* \"#utility.yul\":7518:7519   */\n      dup1\n        /* \"#utility.yul\":7511:7523   */\n      revert\n        /* \"#utility.yul\":7463:7525   */\n    tag_199:\n        /* \"#utility.yul\":7411:7531   */\n      pop\n      jump\t// out\n        /* \"#utility.yul\":7537:7678   */\n    tag_117:\n        /* \"#utility.yul\":7593:7598   */\n      0x00\n        /* \"#utility.yul\":7624:7630   */\n      dup2\n        /* \"#utility.yul\":7618:7631   */\n      mload\n        /* \"#utility.yul\":7609:7631   */\n      swap1\n      pop\n        /* \"#utility.yul\":7640:7672   */\n      tag_201\n        /* \"#utility.yul\":7666:7671   */\n      dup2\n        /* \"#utility.yul\":7640:7672   */\n      tag_116\n      jump\t// in\n    tag_201:\n        /* \"#utility.yul\":7537:7678   */\n      swap3\n      swap2\n      pop\n      pop\n      jump\t// out\n        /* \"#utility.yul\":7684:7760   */\n    tag_118:\n        /* \"#utility.yul\":7720:7727   */\n      0x00\n        /* \"#utility.yul\":7749:7754   */\n      dup2\n        /* \"#utility.yul\":7738:7754   */\n      swap1\n      pop\n        /* \"#utility.yul\":7684:7760   */\n      swap2\n      swap1\n      pop\n      jump\t// out\n        /* \"#utility.yul\":7766:7886   */\n    tag_119:\n        /* \"#utility.yul\":7838:7861   */\n      tag_204\n        /* \"#utility.yul\":7855:7860   */\n      dup2\n        /* \"#utility.yul\":7838:7861   */\n      tag_118\n      jump\t// in\n    tag_204:\n        /* \"#utility.yul\":7831:7836   */\n      dup2\n        /* \"#utility.yul\":7828:7862   */\n      eq\n        /* \"#utility.yul\":7818:7880   */\n      tag_205\n      jumpi\n        /* \"#utility.yul\":7876:7877   */\n      0x00\n        /* \"#utility.yul\":7873:7874   */\n      dup1\n        /* \"#utility.yul\":7866:7878   */\n      revert\n        /* \"#utility.yul\":7818:7880   */\n    tag_205:\n        /* \"#utility.yul\":7766:7886   */\n      pop\n      jump\t// out\n        /* \"#utility.yul\":7892:8033   */\n    tag_120:\n        /* \"#utility.yul\":7948:7953   */\n      0x00\n        /* \"#utility.yul\":7979:7985   */\n      dup2\n        /* \"#utility.yul\":7973:7986   */\n      mload\n        /* \"#utility.yul\":7964:7986   */\n      swap1\n      pop\n        /* \"#utility.yul\":7995:8027   */\n      tag_207\n        /* \"#utility.yul\":8021:8026   */\n      dup2\n        /* \"#utility.yul\":7995:8027   */\n      tag_119\n      jump\t// in\n    tag_207:\n        /* \"#utility.yul\":7892:8033   */\n      swap3\n      swap2\n      pop\n      pop\n      jump\t// out\n        /* \"#utility.yul\":8039:8182   */\n    tag_121:\n        /* \"#utility.yul\":8096:8101   */\n      0x00\n        /* \"#utility.yul\":8127:8133   */\n      dup2\n        /* \"#utility.yul\":8121:8134   */\n      mload\n        /* \"#utility.yul\":8112:8134   */\n      swap1\n      pop\n        /* \"#utility.yul\":8143:8176   */\n      tag_209\n        /* \"#utility.yul\":8170:8175   */\n      dup2\n        /* \"#utility.yul\":8143:8176   */\n      tag_103\n      jump\t// in\n    tag_209:\n        /* \"#utility.yul\":8039:8182   */\n      swap3\n      swap2\n      pop\n      pop\n      jump\t// out\n        /* \"#utility.yul\":8188:9159   */\n    tag_83:\n        /* \"#utility.yul\":8291:8297   */\n      0x00\n        /* \"#utility.yul\":8299:8305   */\n      dup1\n        /* \"#utility.yul\":8307:8313   */\n      0x00\n        /* \"#utility.yul\":8315:8321   */\n      dup1\n        /* \"#utility.yul\":8323:8329   */\n      0x00\n        /* \"#utility.yul\":8372:8375   */\n      0xa0\n        /* \"#utility.yul\":8360:8369   */\n      dup7\n        /* \"#utility.yul\":8351:8358   */\n      dup9\n        /* \"#utility.yul\":8347:8370   */\n      sub\n        /* \"#utility.yul\":8343:8376   */\n      slt\n        /* \"#utility.yul\":8340:8460   */\n      iszero\n      tag_211\n      jumpi\n        /* \"#utility.yul\":8379:8458   */\n      tag_212\n      tag_94\n      jump\t// in\n    tag_212:\n        /* \"#utility.yul\":8340:8460   */\n    tag_211:\n        /* \"#utility.yul\":8499:8500   */\n      0x00\n        /* \"#utility.yul\":8524:8587   */\n      tag_213\n        /* \"#utility.yul\":8579:8586   */\n      dup9\n        /* \"#utility.yul\":8570:8576   */\n      dup3\n        /* \"#utility.yul\":8559:8568   */\n      dup10\n        /* \"#utility.yul\":8555:8577   */\n      add\n        /* \"#utility.yul\":8524:8587   */\n      tag_117\n      jump\t// in\n    tag_213:\n        /* \"#utility.yul\":8514:8587   */\n      swap6\n      pop\n        /* \"#utility.yul\":8470:8597   */\n      pop\n        /* \"#utility.yul\":8636:8638   */\n      0x20\n        /* \"#utility.yul\":8662:8725   */\n      tag_214\n        /* \"#utility.yul\":8717:8724   */\n      dup9\n        /* \"#utility.yul\":8708:8714   */\n      dup3\n        /* \"#utility.yul\":8697:8706   */\n      dup10\n        /* \"#utility.yul\":8693:8715   */\n      add\n        /* \"#utility.yul\":8662:8725   */\n      tag_120\n      jump\t// in\n    tag_214:\n        /* \"#utility.yul\":8652:8725   */\n      swap5\n      pop\n        /* \"#utility.yul\":8607:8735   */\n      pop\n        /* \"#utility.yul\":8774:8776   */\n      0x40\n        /* \"#utility.yul\":8800:8864   */\n      tag_215\n        /* \"#utility.yul\":8856:8863   */\n      dup9\n        /* \"#utility.yul\":8847:8853   */\n      dup3\n        /* \"#utility.yul\":8836:8845   */\n      dup10\n        /* \"#utility.yul\":8832:8854   */\n      add\n        /* \"#utility.yul\":8800:8864   */\n      tag_121\n      jump\t// in\n    tag_215:\n        /* \"#utility.yul\":8790:8864   */\n      swap4\n      pop\n        /* \"#utility.yul\":8745:8874   */\n      pop\n        /* \"#utility.yul\":8913:8915   */\n      0x60\n        /* \"#utility.yul\":8939:9003   */\n      tag_216\n        /* \"#utility.yul\":8995:9002   */\n      dup9\n        /* \"#utility.yul\":8986:8992   */\n      dup3\n        /* \"#utility.yul\":8975:8984   */\n      dup10\n        /* \"#utility.yul\":8971:8993   */\n      add\n        /* \"#utility.yul\":8939:9003   */\n      tag_121\n      jump\t// in\n    tag_216:\n        /* \"#utility.yul\":8929:9003   */\n      swap3\n      pop\n        /* \"#utility.yul\":8884:9013   */\n      pop\n        /* \"#utility.yul\":9052:9055   */\n      0x80\n        /* \"#utility.yul\":9079:9142   */\n      tag_217\n        /* \"#utility.yul\":9134:9141   */\n      dup9\n        /* \"#utility.yul\":9125:9131   */\n      dup3\n        /* \"#utility.yul\":9114:9123   */\n      dup10\n        /* \"#utility.yul\":9110:9132   */\n      add\n        /* \"#utility.yul\":9079:9142   */\n      tag_117\n      jump\t// in\n    tag_217:\n        /* \"#utility.yul\":9069:9142   */\n      swap2\n      pop\n        /* \"#utility.yul\":9023:9152   */\n      pop\n        /* \"#utility.yul\":8188:9159   */\n      swap3\n      swap6\n      pop\n      swap3\n      swap6\n      swap1\n      swap4\n      pop\n      jump\t// out\n        /* \"#utility.yul\":9165:9721   */\n    tag_85:\n        /* \"#utility.yul\":9204:9211   */\n      0x00\n        /* \"#utility.yul\":9227:9246   */\n      tag_219\n        /* \"#utility.yul\":9244:9245   */\n      dup3\n        /* \"#utility.yul\":9227:9246   */\n      tag_118\n      jump\t// in\n    tag_219:\n        /* \"#utility.yul\":9222:9246   */\n      swap2\n      pop\n        /* \"#utility.yul\":9260:9279   */\n      tag_220\n        /* \"#utility.yul\":9277:9278   */\n      dup4\n        /* \"#utility.yul\":9260:9279   */\n      tag_118\n      jump\t// in\n    tag_220:\n        /* \"#utility.yul\":9255:9279   */\n      swap3\n      pop\n        /* \"#utility.yul\":9314:9315   */\n      dup3\n        /* \"#utility.yul\":9311:9312   */\n      dup3\n        /* \"#utility.yul\":9307:9316   */\n      mul\n        /* \"#utility.yul\":9336:9365   */\n      tag_221\n        /* \"#utility.yul\":9353:9364   */\n      dup2\n        /* \"#utility.yul\":9336:9365   */\n      tag_118\n      jump\t// in\n    tag_221:\n        /* \"#utility.yul\":9325:9365   */\n      swap2\n      pop\n        /* \"#utility.yul\":9423:9489   */\n      0x8000000000000000000000000000000000000000000000000000000000000000\n        /* \"#utility.yul\":9420:9421   */\n      dup5\n        /* \"#utility.yul\":9417:9490   */\n      eq\n        /* \"#utility.yul\":9413:9414   */\n      0x00\n        /* \"#utility.yul\":9410:9411   */\n      dup5\n        /* \"#utility.yul\":9406:9415   */\n      slt\n        /* \"#utility.yul\":9402:9491   */\n      and\n        /* \"#utility.yul\":9399:9514   */\n      iszero\n      tag_222\n      jumpi\n        /* \"#utility.yul\":9494:9512   */\n      tag_223\n      tag_108\n      jump\t// in\n    tag_223:\n        /* \"#utility.yul\":9399:9514   */\n    tag_222:\n        /* \"#utility.yul\":9664:9665   */\n      dup3\n        /* \"#utility.yul\":9655:9662   */\n      dup3\n        /* \"#utility.yul\":9650:9666   */\n      sdiv\n        /* \"#utility.yul\":9647:9648   */\n      dup5\n        /* \"#utility.yul\":9644:9667   */\n      eq\n        /* \"#utility.yul\":9624:9625   */\n      dup4\n        /* \"#utility.yul\":9617:9626   */\n      iszero\n        /* \"#utility.yul\":9597:9681   */\n      or\n        /* \"#utility.yul\":9574:9714   */\n      tag_224\n      jumpi\n        /* \"#utility.yul\":9694:9712   */\n      tag_225\n      tag_108\n      jump\t// in\n    tag_225:\n        /* \"#utility.yul\":9574:9714   */\n    tag_224:\n        /* \"#utility.yul\":9212:9721   */\n      pop\n        /* \"#utility.yul\":9165:9721   */\n      swap3\n      swap2\n      pop\n      pop\n      jump\t// out\n\n    auxdata: 0xa26469706673582212207f3b99d8ba09ad21767c17034f05c087633b2c6b570af2e48a1a2450d0159ad864736f6c634300081a0033\n}\n",
				"bytecode": {
					"linkReferences": {},
					"object": "60a0604052348015600e575f80fd5b503373ffffffffffffffffffffffffffffffffffffffff1660808173ffffffffffffffffffffffffffffffffffffffff1681525050608051610ba46100625f395f818161023001526104700152610ba45ff3fe60806040526004361061004d575f3560e01c80633ccfd60b14610066578063a4e465b21461007c578063b60d4288146100b8578063dba6335f146100c2578063dc0d3dff146100ec5761005c565b3661005c5761005a610128565b005b610064610128565b005b348015610071575f80fd5b5061007a61022e565b005b348015610087575f80fd5b506100a2600480360381019061009d91906106a9565b610459565b6040516100af91906106ec565b60405180910390f35b6100c0610128565b005b3480156100cd575f80fd5b506100d661046e565b6040516100e39190610714565b60405180910390f35b3480156100f7575f80fd5b50610112600480360381019061010d9190610757565b610492565b60405161011f9190610714565b60405180910390f35b670de0b6b3a764000061013a346104cc565b1161017a576040517f08c379a0000000000000000000000000000000000000000000000000000000008152600401610171906107dc565b60405180910390fd5b5f33908060018154018082558091505060019003905f5260205f20015f9091909190916101000a81548173ffffffffffffffffffffffffffffffffffffffff021916908373ffffffffffffffffffffffffffffffffffffffff1602179055503460015f3373ffffffffffffffffffffffffffffffffffffffff1673ffffffffffffffffffffffffffffffffffffffff1681526020019081526020015f205f8282546102259190610827565b92505081905550565b7f000000000000000000000000000000000000000000000000000000000000000073ffffffffffffffffffffffffffffffffffffffff163373ffffffffffffffffffffffffffffffffffffffff16146102b3576040517f30cd747100000000000000000000000000000000000000000000000000000000815260040160405180910390fd5b5f5b5f8054905081101561034f575f8082815481106102d5576102d461085a565b5b905f5260205f20015f9054906101000a900473ffffffffffffffffffffffffffffffffffffffff1690505f60015f8373ffffffffffffffffffffffffffffffffffffffff1673ffffffffffffffffffffffffffffffffffffffff1681526020019081526020015f20819055505080806001019150506102b5565b505f67ffffffffffffffff81111561036a57610369610887565b5b6040519080825280602002602001820160405280156103985781602001602082028036833780820191505090505b505f90805190602001906103ad9291906105a9565b505f3373ffffffffffffffffffffffffffffffffffffffff16476040516103d3906108e1565b5f6040518083038185875af1925050503d805f811461040d576040519150601f19603f3d011682016040523d82523d5f602084013e610412565b606091505b5050905080610456576040517f08c379a000000000000000000000000000000000000000000000000000000000815260040161044d9061093f565b60405180910390fd5b50565b6001602052805f5260405f205f915090505481565b7f000000000000000000000000000000000000000000000000000000000000000081565b5f81815481106104a0575f80fd5b905f5260205f20015f915054906101000a900473ffffffffffffffffffffffffffffffffffffffff1681565b5f806104d6610504565b90505f670de0b6b3a764000082856104ee919061095d565b6104f891906109cb565b90508092505050919050565b5f8073694aa1769357215de4fac081bf1f309adc32530690505f8173ffffffffffffffffffffffffffffffffffffffff1663feaf968c6040518163ffffffff1660e01b815260040160a060405180830381865afa158015610567573d5f803e3d5ffd5b505050506040513d601f19601f8201168201806040525081019061058b9190610a81565b5050509150506402540be400816105a29190610af8565b9250505090565b828054828255905f5260205f2090810192821561061f579160200282015b8281111561061e578251825f6101000a81548173ffffffffffffffffffffffffffffffffffffffff021916908373ffffffffffffffffffffffffffffffffffffffff160217905550916020019190600101906105c7565b5b50905061062c9190610630565b5090565b5b80821115610647575f815f905550600101610631565b5090565b5f80fd5b5f73ffffffffffffffffffffffffffffffffffffffff82169050919050565b5f6106788261064f565b9050919050565b6106888161066e565b8114610692575f80fd5b50565b5f813590506106a38161067f565b92915050565b5f602082840312156106be576106bd61064b565b5b5f6106cb84828501610695565b91505092915050565b5f819050919050565b6106e6816106d4565b82525050565b5f6020820190506106ff5f8301846106dd565b92915050565b61070e8161066e565b82525050565b5f6020820190506107275f830184610705565b92915050565b610736816106d4565b8114610740575f80fd5b50565b5f813590506107518161072d565b92915050565b5f6020828403121561076c5761076b61064b565b5b5f61077984828501610743565b91505092915050565b5f82825260208201905092915050565b7f696e73756666696369656e742066756e6420696e2077616c6c657400000000005f82015250565b5f6107c6601b83610782565b91506107d182610792565b602082019050919050565b5f6020820190508181035f8301526107f3816107ba565b9050919050565b7f4e487b71000000000000000000000000000000000000000000000000000000005f52601160045260245ffd5b5f610831826106d4565b915061083c836106d4565b9250828201905080821115610854576108536107fa565b5b92915050565b7f4e487b71000000000000000000000000000000000000000000000000000000005f52603260045260245ffd5b7f4e487b71000000000000000000000000000000000000000000000000000000005f52604160045260245ffd5b5f81905092915050565b50565b5f6108cc5f836108b4565b91506108d7826108be565b5f82019050919050565b5f6108eb826108c1565b9150819050919050565b7f63616c6c206661696c65640000000000000000000000000000000000000000005f82015250565b5f610929600b83610782565b9150610934826108f5565b602082019050919050565b5f6020820190508181035f8301526109568161091d565b9050919050565b5f610967826106d4565b9150610972836106d4565b9250828202610980816106d4565b91508282048414831517610997576109966107fa565b5b5092915050565b7f4e487b71000000000000000000000000000000000000000000000000000000005f52601260045260245ffd5b5f6109d5826106d4565b91506109e0836106d4565b9250826109f0576109ef61099e565b5b828204905092915050565b5f69ffffffffffffffffffff82169050919050565b610a19816109fb565b8114610a23575f80fd5b50565b5f81519050610a3481610a10565b92915050565b5f819050919050565b610a4c81610a3a565b8114610a56575f80fd5b50565b5f81519050610a6781610a43565b92915050565b5f81519050610a7b8161072d565b92915050565b5f805f805f60a08688031215610a9a57610a9961064b565b5b5f610aa788828901610a26565b9550506020610ab888828901610a59565b9450506040610ac988828901610a6d565b9350506060610ada88828901610a6d565b9250506080610aeb88828901610a26565b9150509295509295909350565b5f610b0282610a3a565b9150610b0d83610a3a565b9250828202610b1b81610a3a565b91507f800000000000000000000000000000000000000000000000000000000000000084145f84121615610b5257610b516107fa565b5b8282058414831517610b6757610b666107fa565b5b509291505056fea26469706673582212207f3b99d8ba09ad21767c17034f05c087633b2c6b570af2e48a1a2450d0159ad864736f6c634300081a0033",
					"opcodes": "PUSH1 0xA0 PUSH1 0x40 MSTORE CALLVALUE DUP1 ISZERO PUSH1 0xE JUMPI PUSH0 DUP1 REVERT JUMPDEST POP CALLER PUSH20 0xFFFFFFFFFFFFFFFFFFFFFFFFFFFFFFFFFFFFFFFF AND PUSH1 0x80 DUP2 PUSH20 0xFFFFFFFFFFFFFFFFFFFFFFFFFFFFFFFFFFFFFFFF AND DUP2 MSTORE POP POP PUSH1 0x80 MLOAD PUSH2 0xBA4 PUSH2 0x62 PUSH0 CODECOPY PUSH0 DUP2 DUP2 PUSH2 0x230 ADD MSTORE PUSH2 0x470 ADD MSTORE PUSH2 0xBA4 PUSH0 RETURN INVALID PUSH1 0x80 PUSH1 0x40 MSTORE PUSH1 0x4 CALLDATASIZE LT PUSH2 0x4D JUMPI PUSH0 CALLDATALOAD PUSH1 0xE0 SHR DUP1 PUSH4 0x3CCFD60B EQ PUSH2 0x66 JUMPI DUP1 PUSH4 0xA4E465B2 EQ PUSH2 0x7C JUMPI DUP1 PUSH4 0xB60D4288 EQ PUSH2 0xB8 JUMPI DUP1 PUSH4 0xDBA6335F EQ PUSH2 0xC2 JUMPI DUP1 PUSH4 0xDC0D3DFF EQ PUSH2 0xEC JUMPI PUSH2 0x5C JUMP JUMPDEST CALLDATASIZE PUSH2 0x5C JUMPI PUSH2 0x5A PUSH2 0x128 JUMP JUMPDEST STOP JUMPDEST PUSH2 0x64 PUSH2 0x128 JUMP JUMPDEST STOP JUMPDEST CALLVALUE DUP1 ISZERO PUSH2 0x71 JUMPI PUSH0 DUP1 REVERT JUMPDEST POP PUSH2 0x7A PUSH2 0x22E JUMP JUMPDEST STOP JUMPDEST CALLVALUE DUP1 ISZERO PUSH2 0x87 JUMPI PUSH0 DUP1 REVERT JUMPDEST POP PUSH2 0xA2 PUSH1 0x4 DUP1 CALLDATASIZE SUB DUP2 ADD SWAP1 PUSH2 0x9D SWAP2 SWAP1 PUSH2 0x6A9 JUMP JUMPDEST PUSH2 0x459 JUMP JUMPDEST PUSH1 0x40 MLOAD PUSH2 0xAF SWAP2 SWAP1 PUSH2 0x6EC JUMP JUMPDEST PUSH1 0x40 MLOAD DUP1 SWAP2 SUB SWAP1 RETURN JUMPDEST PUSH2 0xC0 PUSH2 0x128 JUMP JUMPDEST STOP JUMPDEST CALLVALUE DUP1 ISZERO PUSH2 0xCD JUMPI PUSH0 DUP1 REVERT JUMPDEST POP PUSH2 0xD6 PUSH2 0x46E JUMP JUMPDEST PUSH1 0x40 MLOAD PUSH2 0xE3 SWAP2 SWAP1 PUSH2 0x714 JUMP JUMPDEST PUSH1 0x40 MLOAD DUP1 SWAP2 SUB SWAP1 RETURN JUMPDEST CALLVALUE DUP1 ISZERO PUSH2 0xF7 JUMPI PUSH0 DUP1 REVERT JUMPDEST POP PUSH2 0x112 PUSH1 0x4 DUP1 CALLDATASIZE SUB DUP2 ADD SWAP1 PUSH2 0x10D SWAP2 SWAP1 PUSH2 0x757 JUMP JUMPDEST PUSH2 0x492 JUMP JUMPDEST PUSH1 0x40 MLOAD PUSH2 0x11F SWAP2 SWAP1 PUSH2 0x714 JUMP JUMPDEST PUSH1 0x40 MLOAD DUP1 SWAP2 SUB SWAP1 RETURN JUMPDEST PUSH8 0xDE0B6B3A7640000 PUSH2 0x13A CALLVALUE PUSH2 0x4CC JUMP JUMPDEST GT PUSH2 0x17A JUMPI PUSH1 0x40 MLOAD PUSH32 0x8C379A000000000000000000000000000000000000000000000000000000000 DUP2 MSTORE PUSH1 0x4 ADD PUSH2 0x171 SWAP1 PUSH2 0x7DC JUMP JUMPDEST PUSH1 0x40 MLOAD DUP1 SWAP2 SUB SWAP1 REVERT JUMPDEST PUSH0 CALLER SWAP1 DUP1 PUSH1 0x1 DUP2 SLOAD ADD DUP1 DUP3 SSTORE DUP1 SWAP2 POP POP PUSH1 0x1 SWAP1 SUB SWAP1 PUSH0 MSTORE PUSH1 0x20 PUSH0 KECCAK256 ADD PUSH0 SWAP1 SWAP2 SWAP1 SWAP2 SWAP1 SWAP2 PUSH2 0x100 EXP DUP2 SLOAD DUP2 PUSH20 0xFFFFFFFFFFFFFFFFFFFFFFFFFFFFFFFFFFFFFFFF MUL NOT AND SWAP1 DUP4 PUSH20 0xFFFFFFFFFFFFFFFFFFFFFFFFFFFFFFFFFFFFFFFF AND MUL OR SWAP1 SSTORE POP CALLVALUE PUSH1 0x1 PUSH0 CALLER PUSH20 0xFFFFFFFFFFFFFFFFFFFFFFFFFFFFFFFFFFFFFFFF AND PUSH20 0xFFFFFFFFFFFFFFFFFFFFFFFFFFFFFFFFFFFFFFFF AND DUP2 MSTORE PUSH1 0x20 ADD SWAP1 DUP2 MSTORE PUSH1 0x20 ADD PUSH0 KECCAK256 PUSH0 DUP3 DUP3 SLOAD PUSH2 0x225 SWAP2 SWAP1 PUSH2 0x827 JUMP JUMPDEST SWAP3 POP POP DUP2 SWAP1 SSTORE POP JUMP JUMPDEST PUSH32 0x0 PUSH20 0xFFFFFFFFFFFFFFFFFFFFFFFFFFFFFFFFFFFFFFFF AND CALLER PUSH20 0xFFFFFFFFFFFFFFFFFFFFFFFFFFFFFFFFFFFFFFFF AND EQ PUSH2 0x2B3 JUMPI PUSH1 0x40 MLOAD PUSH32 0x30CD747100000000000000000000000000000000000000000000000000000000 DUP2 MSTORE PUSH1 0x4 ADD PUSH1 0x40 MLOAD DUP1 SWAP2 SUB SWAP1 REVERT JUMPDEST PUSH0 JUMPDEST PUSH0 DUP1 SLOAD SWAP1 POP DUP2 LT ISZERO PUSH2 0x34F JUMPI PUSH0 DUP1 DUP3 DUP2 SLOAD DUP2 LT PUSH2 0x2D5 JUMPI PUSH2 0x2D4 PUSH2 0x85A JUMP JUMPDEST JUMPDEST SWAP1 PUSH0 MSTORE PUSH1 0x20 PUSH0 KECCAK256 ADD PUSH0 SWAP1 SLOAD SWAP1 PUSH2 0x100 EXP SWAP1 DIV PUSH20 0xFFFFFFFFFFFFFFFFFFFFFFFFFFFFFFFFFFFFFFFF AND SWAP1 POP PUSH0 PUSH1 0x1 PUSH0 DUP4 PUSH20 0xFFFFFFFFFFFFFFFFFFFFFFFFFFFFFFFFFFFFFFFF AND PUSH20 0xFFFFFFFFFFFFFFFFFFFFFFFFFFFFFFFFFFFFFFFF AND DUP2 MSTORE PUSH1 0x20 ADD SWAP1 DUP2 MSTORE PUSH1 0x20 ADD PUSH0 KECCAK256 DUP2 SWAP1 SSTORE POP POP DUP1 DUP1 PUSH1 0x1 ADD SWAP2 POP POP PUSH2 0x2B5 JUMP JUMPDEST POP PUSH0 PUSH8 0xFFFFFFFFFFFFFFFF DUP2 GT ISZERO PUSH2 0x36A JUMPI PUSH2 0x369 PUSH2 0x887 JUMP JUMPDEST JUMPDEST PUSH1 0x40 MLOAD SWAP1 DUP1 DUP3 MSTORE DUP1 PUSH1 0x20 MUL PUSH1 0x20 ADD DUP3 ADD PUSH1 0x40 MSTORE DUP1 ISZERO PUSH2 0x398 JUMPI DUP2 PUSH1 0x20 ADD PUSH1 0x20 DUP3 MUL DUP1 CALLDATASIZE DUP4 CALLDATACOPY DUP1 DUP3 ADD SWAP2 POP POP SWAP1 POP JUMPDEST POP PUSH0 SWAP1 DUP1 MLOAD SWAP1 PUSH1 0x20 ADD SWAP1 PUSH2 0x3AD SWAP3 SWAP2 SWAP1 PUSH2 0x5A9 JUMP JUMPDEST POP PUSH0 CALLER PUSH20 0xFFFFFFFFFFFFFFFFFFFFFFFFFFFFFFFFFFFFFFFF AND SELFBALANCE PUSH1 0x40 MLOAD PUSH2 0x3D3 SWAP1 PUSH2 0x8E1 JUMP JUMPDEST PUSH0 PUSH1 0x40 MLOAD DUP1 DUP4 SUB DUP2 DUP6 DUP8 GAS CALL SWAP3 POP POP POP RETURNDATASIZE DUP1 PUSH0 DUP2 EQ PUSH2 0x40D JUMPI PUSH1 0x40 MLOAD SWAP2 POP PUSH1 0x1F NOT PUSH1 0x3F RETURNDATASIZE ADD AND DUP3 ADD PUSH1 0x40 MSTORE RETURNDATASIZE DUP3 MSTORE RETURNDATASIZE PUSH0 PUSH1 0x20 DUP5 ADD RETURNDATACOPY PUSH2 0x412 JUMP JUMPDEST PUSH1 0x60 SWAP2 POP JUMPDEST POP POP SWAP1 POP DUP1 PUSH2 0x456 JUMPI PUSH1 0x40 MLOAD PUSH32 0x8C379A000000000000000000000000000000000000000000000000000000000 DUP2 MSTORE PUSH1 0x4 ADD PUSH2 0x44D SWAP1 PUSH2 0x93F JUMP JUMPDEST PUSH1 0x40 MLOAD DUP1 SWAP2 SUB SWAP1 REVERT JUMPDEST POP JUMP JUMPDEST PUSH1 0x1 PUSH1 0x20 MSTORE DUP1 PUSH0 MSTORE PUSH1 0x40 PUSH0 KECCAK256 PUSH0 SWAP2 POP SWAP1 POP SLOAD DUP2 JUMP JUMPDEST PUSH32 0x0 DUP2 JUMP JUMPDEST PUSH0 DUP2 DUP2 SLOAD DUP2 LT PUSH2 0x4A0 JUMPI PUSH0 DUP1 REVERT JUMPDEST SWAP1 PUSH0 MSTORE PUSH1 0x20 PUSH0 KECCAK256 ADD PUSH0 SWAP2 POP SLOAD SWAP1 PUSH2 0x100 EXP SWAP1 DIV PUSH20 0xFFFFFFFFFFFFFFFFFFFFFFFFFFFFFFFFFFFFFFFF AND DUP2 JUMP JUMPDEST PUSH0 DUP1 PUSH2 0x4D6 PUSH2 0x504 JUMP JUMPDEST SWAP1 POP PUSH0 PUSH8 0xDE0B6B3A7640000 DUP3 DUP6 PUSH2 0x4EE SWAP2 SWAP1 PUSH2 0x95D JUMP JUMPDEST PUSH2 0x4F8 SWAP2 SWAP1 PUSH2 0x9CB JUMP JUMPDEST SWAP1 POP DUP1 SWAP3 POP POP POP SWAP2 SWAP1 POP JUMP JUMPDEST PUSH0 DUP1 PUSH20 0x694AA1769357215DE4FAC081BF1F309ADC325306 SWAP1 POP PUSH0 DUP2 PUSH20 0xFFFFFFFFFFFFFFFFFFFFFFFFFFFFFFFFFFFFFFFF AND PUSH4 0xFEAF968C PUSH1 0x40 MLOAD DUP2 PUSH4 0xFFFFFFFF AND PUSH1 0xE0 SHL DUP2 MSTORE PUSH1 0x4 ADD PUSH1 0xA0 PUSH1 0x40 MLOAD DUP1 DUP4 SUB DUP2 DUP7 GAS STATICCALL ISZERO DUP1 ISZERO PUSH2 0x567 JUMPI RETURNDATASIZE PUSH0 DUP1 RETURNDATACOPY RETURNDATASIZE PUSH0 REVERT JUMPDEST POP POP POP POP PUSH1 0x40 MLOAD RETURNDATASIZE PUSH1 0x1F NOT PUSH1 0x1F DUP3 ADD AND DUP3 ADD DUP1 PUSH1 0x40 MSTORE POP DUP2 ADD SWAP1 PUSH2 0x58B SWAP2 SWAP1 PUSH2 0xA81 JUMP JUMPDEST POP POP POP SWAP2 POP POP PUSH5 0x2540BE400 DUP2 PUSH2 0x5A2 SWAP2 SWAP1 PUSH2 0xAF8 JUMP JUMPDEST SWAP3 POP POP POP SWAP1 JUMP JUMPDEST DUP3 DUP1 SLOAD DUP3 DUP3 SSTORE SWAP1 PUSH0 MSTORE PUSH1 0x20 PUSH0 KECCAK256 SWAP1 DUP2 ADD SWAP3 DUP3 ISZERO PUSH2 0x61F JUMPI SWAP2 PUSH1 0x20 MUL DUP3 ADD JUMPDEST DUP3 DUP2 GT ISZERO PUSH2 0x61E JUMPI DUP3 MLOAD DUP3 PUSH0 PUSH2 0x100 EXP DUP2 SLOAD DUP2 PUSH20 0xFFFFFFFFFFFFFFFFFFFFFFFFFFFFFFFFFFFFFFFF MUL NOT AND SWAP1 DUP4 PUSH20 0xFFFFFFFFFFFFFFFFFFFFFFFFFFFFFFFFFFFFFFFF AND MUL OR SWAP1 SSTORE POP SWAP2 PUSH1 0x20 ADD SWAP2 SWAP1 PUSH1 0x1 ADD SWAP1 PUSH2 0x5C7 JUMP JUMPDEST JUMPDEST POP SWAP1 POP PUSH2 0x62C SWAP2 SWAP1 PUSH2 0x630 JUMP JUMPDEST POP SWAP1 JUMP JUMPDEST JUMPDEST DUP1 DUP3 GT ISZERO PUSH2 0x647 JUMPI PUSH0 DUP2 PUSH0 SWAP1 SSTORE POP PUSH1 0x1 ADD PUSH2 0x631 JUMP JUMPDEST POP SWAP1 JUMP JUMPDEST PUSH0 DUP1 REVERT JUMPDEST PUSH0 PUSH20 0xFFFFFFFFFFFFFFFFFFFFFFFFFFFFFFFFFFFFFFFF DUP3 AND SWAP1 POP SWAP2 SWAP1 POP JUMP JUMPDEST PUSH0 PUSH2 0x678 DUP3 PUSH2 0x64F JUMP JUMPDEST SWAP1 POP SWAP2 SWAP1 POP JUMP JUMPDEST PUSH2 0x688 DUP2 PUSH2 0x66E JUMP JUMPDEST DUP2 EQ PUSH2 0x692 JUMPI PUSH0 DUP1 REVERT JUMPDEST POP JUMP JUMPDEST PUSH0 DUP2 CALLDATALOAD SWAP1 POP PUSH2 0x6A3 DUP2 PUSH2 0x67F JUMP JUMPDEST SWAP3 SWAP2 POP POP JUMP JUMPDEST PUSH0 PUSH1 0x20 DUP3 DUP5 SUB SLT ISZERO PUSH2 0x6BE JUMPI PUSH2 0x6BD PUSH2 0x64B JUMP JUMPDEST JUMPDEST PUSH0 PUSH2 0x6CB DUP5 DUP3 DUP6 ADD PUSH2 0x695 JUMP JUMPDEST SWAP2 POP POP SWAP3 SWAP2 POP POP JUMP JUMPDEST PUSH0 DUP2 SWAP1 POP SWAP2 SWAP1 POP JUMP JUMPDEST PUSH2 0x6E6 DUP2 PUSH2 0x6D4 JUMP JUMPDEST DUP3 MSTORE POP POP JUMP JUMPDEST PUSH0 PUSH1 0x20 DUP3 ADD SWAP1 POP PUSH2 0x6FF PUSH0 DUP4 ADD DUP5 PUSH2 0x6DD JUMP JUMPDEST SWAP3 SWAP2 POP POP JUMP JUMPDEST PUSH2 0x70E DUP2 PUSH2 0x66E JUMP JUMPDEST DUP3 MSTORE POP POP JUMP JUMPDEST PUSH0 PUSH1 0x20 DUP3 ADD SWAP1 POP PUSH2 0x727 PUSH0 DUP4 ADD DUP5 PUSH2 0x705 JUMP JUMPDEST SWAP3 SWAP2 POP POP JUMP JUMPDEST PUSH2 0x736 DUP2 PUSH2 0x6D4 JUMP JUMPDEST DUP2 EQ PUSH2 0x740 JUMPI PUSH0 DUP1 REVERT JUMPDEST POP JUMP JUMPDEST PUSH0 DUP2 CALLDATALOAD SWAP1 POP PUSH2 0x751 DUP2 PUSH2 0x72D JUMP JUMPDEST SWAP3 SWAP2 POP POP JUMP JUMPDEST PUSH0 PUSH1 0x20 DUP3 DUP5 SUB SLT ISZERO PUSH2 0x76C JUMPI PUSH2 0x76B PUSH2 0x64B JUMP JUMPDEST JUMPDEST PUSH0 PUSH2 0x779 DUP5 DUP3 DUP6 ADD PUSH2 0x743 JUMP JUMPDEST SWAP2 POP POP SWAP3 SWAP2 POP POP JUMP JUMPDEST PUSH0 DUP3 DUP3 MSTORE PUSH1 0x20 DUP3 ADD SWAP1 POP SWAP3 SWAP2 POP POP JUMP JUMPDEST PUSH32 0x696E73756666696369656E742066756E6420696E2077616C6C65740000000000 PUSH0 DUP3 ADD MSTORE POP JUMP JUMPDEST PUSH0 PUSH2 0x7C6 PUSH1 0x1B DUP4 PUSH2 0x782 JUMP JUMPDEST SWAP2 POP PUSH2 0x7D1 DUP3 PUSH2 0x792 JUMP JUMPDEST PUSH1 0x20 DUP3 ADD SWAP1 POP SWAP2 SWAP1 POP JUMP JUMPDEST PUSH0 PUSH1 0x20 DUP3 ADD SWAP1 POP DUP2 DUP2 SUB PUSH0 DUP4 ADD MSTORE PUSH2 0x7F3 DUP2 PUSH2 0x7BA JUMP JUMPDEST SWAP1 POP SWAP2 SWAP1 POP JUMP JUMPDEST PUSH32 0x4E487B7100000000000000000000000000000000000000000000000000000000 PUSH0 MSTORE PUSH1 0x11 PUSH1 0x4 MSTORE PUSH1 0x24 PUSH0 REVERT JUMPDEST PUSH0 PUSH2 0x831 DUP3 PUSH2 0x6D4 JUMP JUMPDEST SWAP2 POP PUSH2 0x83C DUP4 PUSH2 0x6D4 JUMP JUMPDEST SWAP3 POP DUP3 DUP3 ADD SWAP1 POP DUP1 DUP3 GT ISZERO PUSH2 0x854 JUMPI PUSH2 0x853 PUSH2 0x7FA JUMP JUMPDEST JUMPDEST SWAP3 SWAP2 POP POP JUMP JUMPDEST PUSH32 0x4E487B7100000000000000000000000000000000000000000000000000000000 PUSH0 MSTORE PUSH1 0x32 PUSH1 0x4 MSTORE PUSH1 0x24 PUSH0 REVERT JUMPDEST PUSH32 0x4E487B7100000000000000000000000000000000000000000000000000000000 PUSH0 MSTORE PUSH1 0x41 PUSH1 0x4 MSTORE PUSH1 0x24 PUSH0 REVERT JUMPDEST PUSH0 DUP2 SWAP1 POP SWAP3 SWAP2 POP POP JUMP JUMPDEST POP JUMP JUMPDEST PUSH0 PUSH2 0x8CC PUSH0 DUP4 PUSH2 0x8B4 JUMP JUMPDEST SWAP2 POP PUSH2 0x8D7 DUP3 PUSH2 0x8BE JUMP JUMPDEST PUSH0 DUP3 ADD SWAP1 POP SWAP2 SWAP1 POP JUMP JUMPDEST PUSH0 PUSH2 0x8EB DUP3 PUSH2 0x8C1 JUMP JUMPDEST SWAP2 POP DUP2 SWAP1 POP SWAP2 SWAP1 POP JUMP JUMPDEST PUSH32 0x63616C6C206661696C6564000000000000000000000000000000000000000000 PUSH0 DUP3 ADD MSTORE POP JUMP JUMPDEST PUSH0 PUSH2 0x929 PUSH1 0xB DUP4 PUSH2 0x782 JUMP JUMPDEST SWAP2 POP PUSH2 0x934 DUP3 PUSH2 0x8F5 JUMP JUMPDEST PUSH1 0x20 DUP3 ADD SWAP1 POP SWAP2 SWAP1 POP JUMP JUMPDEST PUSH0 PUSH1 0x20 DUP3 ADD SWAP1 POP DUP2 DUP2 SUB PUSH0 DUP4 ADD MSTORE PUSH2 0x956 DUP2 PUSH2 0x91D JUMP JUMPDEST SWAP1 POP SWAP2 SWAP1 POP JUMP JUMPDEST PUSH0 PUSH2 0x967 DUP3 PUSH2 0x6D4 JUMP JUMPDEST SWAP2 POP PUSH2 0x972 DUP4 PUSH2 0x6D4 JUMP JUMPDEST SWAP3 POP DUP3 DUP3 MUL PUSH2 0x980 DUP2 PUSH2 0x6D4 JUMP JUMPDEST SWAP2 POP DUP3 DUP3 DIV DUP5 EQ DUP4 ISZERO OR PUSH2 0x997 JUMPI PUSH2 0x996 PUSH2 0x7FA JUMP JUMPDEST JUMPDEST POP SWAP3 SWAP2 POP POP JUMP JUMPDEST PUSH32 0x4E487B7100000000000000000000000000000000000000000000000000000000 PUSH0 MSTORE PUSH1 0x12 PUSH1 0x4 MSTORE PUSH1 0x24 PUSH0 REVERT JUMPDEST PUSH0 PUSH2 0x9D5 DUP3 PUSH2 0x6D4 JUMP JUMPDEST SWAP2 POP PUSH2 0x9E0 DUP4 PUSH2 0x6D4 JUMP JUMPDEST SWAP3 POP DUP3 PUSH2 0x9F0 JUMPI PUSH2 0x9EF PUSH2 0x99E JUMP JUMPDEST JUMPDEST DUP3 DUP3 DIV SWAP1 POP SWAP3 SWAP2 POP POP JUMP JUMPDEST PUSH0 PUSH10 0xFFFFFFFFFFFFFFFFFFFF DUP3 AND SWAP1 POP SWAP2 SWAP1 POP JUMP JUMPDEST PUSH2 0xA19 DUP2 PUSH2 0x9FB JUMP JUMPDEST DUP2 EQ PUSH2 0xA23 JUMPI PUSH0 DUP1 REVERT JUMPDEST POP JUMP JUMPDEST PUSH0 DUP2 MLOAD SWAP1 POP PUSH2 0xA34 DUP2 PUSH2 0xA10 JUMP JUMPDEST SWAP3 SWAP2 POP POP JUMP JUMPDEST PUSH0 DUP2 SWAP1 POP SWAP2 SWAP1 POP JUMP JUMPDEST PUSH2 0xA4C DUP2 PUSH2 0xA3A JUMP JUMPDEST DUP2 EQ PUSH2 0xA56 JUMPI PUSH0 DUP1 REVERT JUMPDEST POP JUMP JUMPDEST PUSH0 DUP2 MLOAD SWAP1 POP PUSH2 0xA67 DUP2 PUSH2 0xA43 JUMP JUMPDEST SWAP3 SWAP2 POP POP JUMP JUMPDEST PUSH0 DUP2 MLOAD SWAP1 POP PUSH2 0xA7B DUP2 PUSH2 0x72D JUMP JUMPDEST SWAP3 SWAP2 POP POP JUMP JUMPDEST PUSH0 DUP1 PUSH0 DUP1 PUSH0 PUSH1 0xA0 DUP7 DUP9 SUB SLT ISZERO PUSH2 0xA9A JUMPI PUSH2 0xA99 PUSH2 0x64B JUMP JUMPDEST JUMPDEST PUSH0 PUSH2 0xAA7 DUP9 DUP3 DUP10 ADD PUSH2 0xA26 JUMP JUMPDEST SWAP6 POP POP PUSH1 0x20 PUSH2 0xAB8 DUP9 DUP3 DUP10 ADD PUSH2 0xA59 JUMP JUMPDEST SWAP5 POP POP PUSH1 0x40 PUSH2 0xAC9 DUP9 DUP3 DUP10 ADD PUSH2 0xA6D JUMP JUMPDEST SWAP4 POP POP PUSH1 0x60 PUSH2 0xADA DUP9 DUP3 DUP10 ADD PUSH2 0xA6D JUMP JUMPDEST SWAP3 POP POP PUSH1 0x80 PUSH2 0xAEB DUP9 DUP3 DUP10 ADD PUSH2 0xA26 JUMP JUMPDEST SWAP2 POP POP SWAP3 SWAP6 POP SWAP3 SWAP6 SWAP1 SWAP4 POP JUMP JUMPDEST PUSH0 PUSH2 0xB02 DUP3 PUSH2 0xA3A JUMP JUMPDEST SWAP2 POP PUSH2 0xB0D DUP4 PUSH2 0xA3A JUMP JUMPDEST SWAP3 POP DUP3 DUP3 MUL PUSH2 0xB1B DUP2 PUSH2 0xA3A JUMP JUMPDEST SWAP2 POP PUSH32 0x8000000000000000000000000000000000000000000000000000000000000000 DUP5 EQ PUSH0 DUP5 SLT AND ISZERO PUSH2 0xB52 JUMPI PUSH2 0xB51 PUSH2 0x7FA JUMP JUMPDEST JUMPDEST DUP3 DUP3 SDIV DUP5 EQ DUP4 ISZERO OR PUSH2 0xB67 JUMPI PUSH2 0xB66 PUSH2 0x7FA JUMP JUMPDEST JUMPDEST POP SWAP3 SWAP2 POP POP JUMP INVALID LOG2 PUSH5 0x6970667358 0x22 SLT KECCAK256 PUSH32 0x3B99D8BA09AD21767C17034F05C087633B2C6B570AF2E48A1A2450D0159AD864 PUSH20 0x6F6C634300081A00330000000000000000000000 "
				},
				"gasEstimates": {
					"creation": {
						"codeDepositCost": "596000",
						"executionCost": "infinite",
						"totalCost": "infinite"
					},
					"external": {
						"": "infinite",
						"addrToFundedAmount(address)": "2802",
						"fund()": "infinite",
						"funders(uint256)": "5009",
						"i_owner()": "infinite",
						"withdraw()": "infinite"
					}
				},
				"methodIdentifiers": {
					"addrToFundedAmount(address)": "a4e465b2",
					"fund()": "b60d4288",
					"funders(uint256)": "dc0d3dff",
					"i_owner()": "dba6335f",
					"withdraw()": "3ccfd60b"
				}
			},
			"storageLayout": {
				"storage": [
					{
						"astId": 59,
						"contract": "FundMe.sol:FundMe",
						"label": "funders",
						"offset": 0,
						"slot": "0",
						"type": "t_array(t_address)dyn_storage"
					},
					{
						"astId": 66,
						"contract": "FundMe.sol:FundMe",
						"label": "addrToFundedAmount",
						"offset": 0,
						"slot": "1",
						"type": "t_mapping(t_address,t_uint256)"
					}
				],
				"types": {
					"t_address": {
						"encoding": "inplace",
						"label": "address",
						"numberOfBytes": "20"
					},
					"t_array(t_address)dyn_storage": {
						"base": "t_address",
						"encoding": "dynamic_array",
						"label": "address[]",
						"numberOfBytes": "32"
					},
					"t_mapping(t_address,t_uint256)": {
						"encoding": "mapping",
						"key": "t_address",
						"label": "mapping(address => uint256)",
						"numberOfBytes": "32",
						"value": "t_uint256"
					},
					"t_uint256": {
						"encoding": "inplace",
						"label": "uint256",
						"numberOfBytes": "32"
					}
				}
			},
			"userdoc": {
				"kind": "user",
				"methods": {},
				"version": 1
			}
		}
	}
}